:100000007BEF00F0F76A180FF66E000EF722000E75
:10001000F86E0900F5501200EFDFBF7F000E956EFD
:10002000F00E9A6E0F0E936EF19E8CEF00F0056845
:10003000066A065003082FE3036A0650F2CF07F062
:10004000F29EE0DF07BEF28E936A8A6E938081B0E3
:1000500005D00650040DF3CF05F0F8D7938281B296
:1000600006D00650040DF350010F056EF7D79384A8
:1000700081B406D00650040DF350020F056EF7D779
:10008000938681B606D00650040DF350030F056E1B
:10009000F7D7062ACED705C001F08DEF00F008C0D3
:1000A0000AF00B6A0C6A0D6A665008C066FF64307D
:1000B000FEE307C00AF008C00BF00C6A0D6A665038
:1000C00007C066FF6430FEE306C00AF007C00BF00D
:1000D00008C00CF00D6A665006C066FF6430FEE38F
:1000E000665005C066FF6430FEE3959A8C8A959A47
:1000F0008C9A98EF00F0F86AD09E639A000E646EB6
:10010000210E636E9598958A959CC150C00B0F097E
:10011000C16E070EB46E82D78AD701C004F0043CCA
:1001200001D006D0086A076A066A04C005F0B7D78E
:04013000F3D70300FE
:020000040030CA
:0E00000000C21E1EF387B100FFC0FFE0FF40EC
:00000001FF
;PIC18F8722
;CRC=2FA4  CREATED="10-Sep-21 09:19"
