:100000007BEF00F0F76A180FF66E000EF722000E75
:10001000F86E0900F5501200C0F9A4B0999282F868
:1000200080908883C6A1868EF76A3C0FF66E000E1C
:10003000F722000EF86E0900F5501200EFDFBF7FC7
:10004000000E956EF00E9A6E0F0E936EF19E95EF68
:1000500000F00E680F6A0F5003082FE3036A0F5079
:10006000F2CF10F0F29EE0DF10BEF28E936A8A6E3D
:10007000938081B005D00F50040DF3CF0EF0F8D768
:10008000938281B206D00F50040DF350010F0E6E13
:10009000F7D7938481B406D00F50040DF350020FAC
:1000A0000E6EF7D7938681B606D00F50040DF3502D
:1000B000030F0E6EF7D70F2ACED70EC001F096EFC2
:1000C00000F0665011C066FF6430FEE3665010C059
:1000D00066FF6430FEE366500FC066FF6430FEE3E7
:1000E00066500EC066FF6430FEE3959E8C8E959E32
:1000F0008C9E06EF01F0F86AD09E639A000E646E43
:10010000210E636E9598958A959CC150C00B0F097E
:10011000C16E070EB46E7F0E046E056E066E076E1E
:10012000086E096E0A6E0B6E8BD793D701C00CF068
:100130000C5009082AE3070E0D6E0D521CE0036AED
:100140000D50040F016E000E032201C00EF003C01B
:100150000FF0010E0D5C036A040FE96E000E032020
:10016000EA6EEFCF10F00FC0EAFF01C0E9FF10C048
:10017000EFFF0D06E2D7036A0C50F2CF0EF0F29EAD
:1001800041DF0EBEF28E046E38D00C500B0823E116
:100190000D6A0D5006081CE3036A0D50040F016E32
:1001A000000E032201C00EF003C00FF0010E0D245B
:1001B000036A040FE96E000E0320EA6EEFCF10F021
:1001C0000FC0EAFF01C0E9FF10C0EFFF0D2AE1D721
:1001D0007F0E0B6E12D00C500C080FE10D6A0D5003
:1001E00007080BE3036A0D50040FE96E000E0320AD
:1001F000EA6E7F0EEF6E0D2AF2D707C00EF006C032
:100200000FF005C010F004C011F05BD78ED70300CB
:020000040030CA
:0E00000000C21E1EF387B100FFC0FFE0FF40EC
:00000001FF
;PIC18F8722
;CRC=02A4  CREATED="22-Sep-21 12:59"
