:1000000032EF00F0000E956E43EF00F0665005C031
:1000100066FF6430FEE3665006C066FF6430FEE3B0
:10002000665007C066FF6430FEE3665008C066FF96
:100030006430FEE3959A8C8A959A8C9A1200EA6A4B
:10004000060EE96EEF500DE0060E016E006A002EFE
:10005000FED7012EFBD77B0E006E002EFED7EF2EB3
:10006000F3D71200F86AD09E639A000E646E210ED8
:10007000636E9598958A959CC150C00B0F09C16E0F
:10008000070EB46EBFD7056A066A07680868BEDF48
:10009000020E056E960E066ED2DF052EFBD7056AA0
:1000A000066A076A086AB2DF020E056E960E066ED1
:0A00B000C6DF052EFBD7E7D70300DB
:020000040030CA
:0E00000000C21E1EF387B100FFC0FFE0FF40EC
:00000001FF
;PIC18F8722
;CRC=62DD  CREATED="27-Aug-21 14:57"
