:1000000075EF01F0F76A180FF66E000EF722000E7A
:10001000F86E0900F5501200C0F9A4B0999282F868
:1000200080908883C6A1868E000E956EF00E9A6E23
:100030000F0E936EF19E86EF01F00750070B006ED6
:100040000730016E013201321F0E011601500924E2
:10005000E96E000E0A20EA6E016A012A002A01D028
:100060000136002EFDD7085203E00150EF1203D0F5
:10007000011E0150EF1612000750070B006E0730EB
:10008000016E013201321F0E011601500824E96E83
:10009000000E0920EA6EEFCF01F0002A01D00132F4
:1000A000002EFDD71200EA6A070EE96EEF500DE050
:1000B000060E016E006A002EFED7012EFBD77B0EC6
:1000C000006E002EFED7EF2EF3D77CEF00F005C0B8
:1000D00007F0010E086E0F0E0A6E920E096EADDF6C
:1000E00005C007F00F0E096E800E086EC5DF01B067
:1000F0002AD0140E076ED7D705C007F0010E086E80
:100100000F0E0A6E920E096E98DF05C007F00F0EF3
:10011000096E800E086EB0DF01B015D005C007F083
:10012000010E086E0F0E0A6E920E096E86DF05C074
:1001300007F00F0E096E800E086E9EDF01A0EED74D
:10014000000E016E02D0010E016E1200016A026AF9
:10015000006A036A105002E10F5018E0100E116E91
:10016000D8900D360E36003603361050035C02E18F
:100170000F50005C07E30F50005ED8A0030610503C
:10018000035ED88001360236112EEAD7120066507F
:100190000EC066FF6430FEE366500DC066FF64303B
:1001A000FEE366500CC066FF6430FEE366500BC091
:1001B00066FF6430FEE3959E8C8E959E8C9E73EF59
:1001C00001F006C00EF005C00DF0106A0A0E0F6EA9
:1001D000BDDF00C00BF003C00CF003C003F0005003
:1001E000F2CF0DF0F29E0EDF0DBEF28E076E06C04E
:1001F0000EF005C00DF0106A0A0E0F6EA7DF02C0E8
:100200000CF001C00BF002C00EF001C00DF0106A3E
:100210000A0E0F6E9BDF00C00BF003C00CF003C092
:1002200003F00050F2CF0DF0F29EECDE0DBEF28E28
:10023000086E06C00EF005C00DF0106A640E0F6E59
:1002400085DF02C00CF001C00BF002C00EF001C04F
:100250000DF0106A0A0E0F6E79DF00C00BF003C0BC
:100260000CF003C003F00050F2CF0DF0F29ECADE96
:100270000DBEF28E096E06C00EF005C00DF0030E25
:10028000106EE80E0F6E62DF02C00CF001C00BF0C2
:1002900002C00EF001C00DF0106A0A0E0F6E56DF9C
:1002A00000C00BF003C00CF003C003F00050F2CF0D
:1002B0000DF0F29EA7DE0DBEF28E0A6E0A50C00847
:1002C00009E10A680950C00805E109680850C0083A
:1002D00001E108680AC00BF009C00CF008C00DF07D
:1002E00007C00EF054D7A1EF01F0F86AD09E639AD0
:1002F000000E646E210E636E9598958A959CC15090
:10030000C00B0F09C16E070EB46E8ED6D56AD76AC0
:100310001A0ED66E7C0E066E440E056ED8DE0152A5
:1003200002E1B80ED56E7C0E066E450E056ECFDE70
:10033000015201E1D56AD650046E066A04C005F088
:0603400040D7E8D70300DE
:020000040030CA
:0E00000000C21E1EF387B100FFC0FFE0FF40EC
:00000001FF
;PIC18F8722
;CRC=8EC8  CREATED="15-Sep-21 13:38"
