:100000005EEF00F066500FC066FF6430D8A005EFC9
:1000100000F066500EC066FF6430D8A00CEF00F010
:1000200066500DC066FF6430D8A013EF00F0665034
:100030000CC066FF6430D8A01AEF00F0959E8C8E3D
:10004000959E8C9E30EF00F0000E956EF00E9A6E2D
:100050000F0E936EF19E0C680D680E680F68D2D774
:1000600077EF00F066500CC066FF6430FEE3665028
:100070000DC066FF6430FEE366500EC066FF64305C
:10008000FEE366500FC066FF6430FEE3959A8C8AEB
:10009000959A8C9A1200EA6A0D0EE96EEF500DE007
:1000A000060E016E006A002EFED7012EFBD77B0ED6
:1000B000006E002EFED7EF2EF3D71200F86AD09E06
:1000C000639A000E646E200E636E9598958A959CD7
:1000D000C150C00B0F09C16E070EB46E04680568ED
:1000E00006680768086809680A680B68ADD70C6A73
:1000F0000D6A0E680F68B6DF020E0C6E960E0D6E5E
:10010000CADF0C2EFBD70C6A0D6A0E6A0F6AAADFD3
:10011000020E0C6E960E0D6EBEDF0C2EFBD7E7D7CF
:020120000300DA
:020000040030CA
:0E00000000C21E1EF387B100FFC0FFE0FF40EC
:00000001FF
;PIC18F8722
;CRC=4C68  CREATED="27-Sep-21 22:22"
