:10000000A1EF00F0F76A180FF66E000EF722000E4F
:10001000F86E0900F5501200EFDFBF7F000E956EFD
:10002000F00E9A6E0F0E936EF19EB4EF00F00C6816
:100030000D6A0D5003082FE3036A0D50F2CF0EF046
:10004000F29EE0DF0EBEF28E936A8A6E938081B0DC
:1000500005D00D50040DF3CF0CF0F8D7938281B288
:1000600006D00D50040DF350010F0C6EF7D793849A
:1000700081B406D00D50040DF350020F0C6EF7D76B
:10008000938681B606D00D50040DF350030F0C6E0D
:10009000F7D70D2ACED70CC001F012000DC010F01A
:1000A000116A66500DC066FF6430FEE366500CC0F6
:1000B00066FF6430FEE30FC010F0116A66500FC097
:1000C00066FF6430FEE366500EC066FF6430FEE3F8
:1000D000959A8C8A959A8C9A1200100E066E06BE1E
:1000E0002ED0086807680650006E05E0D8900832E8
:1000F0000732002EFBD708C00DF007C00CF00F6AC6
:1001000005C00EF0CBDF0A6A096A0A5216E10950EF
:10011000630813E38CDF01C004F004500A0801E116
:10012000052A08C00DF007C00CF00F6A05C00EF0DC
:10013000B5DF092AD8B40A2AE8D70606D0D7C1EF16
:1001400000F0F86AD09E639A000E646E210E636E12
:100150009598958A959C056A0B90C150C00B0F0924
:10016000C16E070EB46E5AD762DF01C004F00450AE
:100170000A0801E1052A04500F0801E10B800BB0C9
:10018000ACD708C00DF007C00CF00F6A05C00EF028
:0601900085DFEAD7030041
:020000040030CA
:0E00000000C21E1EF387B100FFC0FFE0FF40EC
:00000001FF
;PIC18F8722
;CRC=421E  CREATED="13-Sep-21 15:30"
