:1000000014EF03F0F76A180FF66E000EF722000ED9
:10001000F86E0900F5501200C0F9A4B0999282F868
:1000200080908883C6A1868EF76A3C0FF66E000E1C
:10003000F722000EF86E0900F550120000010205CB
:10004000030401022003FF0306060205030306065C
:10005000020303040503FF2020FFFF060603030439
:100060000006060503040101FF2020FF000602052B
:100070000304000602030304202020202020F76A46
:10008000920FF66E000EF722000EF86E0900F55082
:100090001200070F1F1F1F1F1F1F1F1F1F00000021
:1000A00000001C1E1F1F1F1F1F1F00000000001F3D
:1000B0001F1F1F1F1F1F1F1F1E1C1F1F1F1F1F1F54
:1000C0000F071F1F1F0000001F1F00000000001C63
:1000D0001E1FF76AE60FF66E000EF722000EF86E8E
:1000E0000900F550120080C094D466501DC066FF10
:1000F0006430FEE366501CC066FF6430FEE3665069
:100100001BC066FF6430FEE366501AC066FF6430B1
:10011000FEE3959E8C8E959E8C9ECAEF00F01DC0CE
:100120001FF0206A216A226A66501DC066FF643093
:10013000FEE31CC01FF01DC020F0216A226A665039
:100140001CC066FF6430FEE31BC01FF01CC020F023
:100150001DC021F0226A66501BC066FF6430FEE3BA
:1001600066501AC066FF6430FEE3959A8C8A959AB1
:100170008C9ACFEF00F0100E926E000E956EF00E7E
:100180009A6E0F0E936E976A8E681A681B681C68C9
:100190001D68ABD71D6A1C6A1B6A1A6AC0D73AEF82
:1001A00003F0030E255E09E3EA6A250EE96EEF50BF
:1001B00004E001D000D0EF2EFDD7FEEF00F024B018
:1001C00002D0919001D091809A9024B202D0919265
:1001D00001D091829A9224B402D0919401D091845A
:1001E0009A9424B602D0919601D091869A969592CF
:1001F0008C8295928C92C80E256ED3D71200959062
:100200008C902238236E0F0E231623C024F0D7DFE4
:1002100022C024F0D4DF1200EA6A1B0EE96EEF5010
:100220000DE0060E016E006A002EFED7012EFBD7F0
:100230007B0E006E002EFED7EF2EF3D712009590A6
:100240008C801F38206E0F0E201620C024F0B7DFE0
:100250001FC024F0B4DF1200320E226ED0DF050E74
:100260001B6EDADF280E226ECADF050E1B6ED4DF8E
:100270000C0E226EC4DF400E226EC1DF1A6A1A50C5
:100280003F0808E3036A1A50FADE1B6E1F6ED7DFC1
:100290001A2AF5D7010E226EB2DF020E1B6EBCDFEA
:1002A0003BEF03F0036A1F5014DF2024216E226EFF
:1002B000A6DF1200006A016A1E50D8901FB0002607
:1002C000003201321FB20026003201321FB4002674
:1002D000003201321FB60026003201321FB800265C
:1002E000003201321FBA0026003201321FBC002644
:1002F000003201321FBE00260032013298EF01F0B9
:100300001BC01FF01CC020F0CDDF1D6A1D5005086A
:1003100021E31D50030807E1010E1B241E6E1F6E12
:100320001CC020F0BFDF1AC01EF0060E1F6EC2D721
:1003300001501F6A1E6EE8BE1F06036A1D501E2470
:10034000016E1F50032201506FDE1E6E1F6E77DF9D
:100350001D2ADCD763EF03F01A6A1A5007081EE360
:10036000036A1A50040FE96E000E0320EA6EEFCF05
:100370008DFF966A800E006E1A50016E04E0D890D0
:100380000032012EFCD70050FF0A976A8E6E010ED4
:100390001B6E42DF976A8E681A2ADFD769EF03F077
:1003A000938081B004D0000E016E17D014D09382D8
:1003B00081B204D0010E016E10D00DD0938481B4AF
:1003C00004D0020E016E09D006D0938681B603D008
:1003D000030E016E02D0FF0E016EF1EF01F01A68FC
:1003E000DFD701C01BF01B3C01D00DD00EB20BD0EB
:1003F000112A1150020806E21050040DF3501B247C
:100400001A6E0E8233D01B3C21D00EB21FD0116A5F
:10041000102A030E1016105204E1939E8A8E9398B0
:100420008A98102C04D093988A88939A8A9A1050AC
:10043000020804E1939A8A8A939C8A9C10500308CC
:1004400004E1939C8A8C939E8A9E10D01B3C01D021
:1004500005D00EA203D0030E116E08D01B3C06D0AF
:10046000112A1150050802E20E92116A1AC001F019
:100470006AEF03F01C50070B006E1C30016E013256
:1004800001321F0E011601501E24E96E000E1F20BE
:10049000EA6E016A012A002A01D00136002EFDD73A
:1004A0001D5203E00150EF1203D0011E0150EF1660
:1004B00012001C50070B006E1C30016E013201321D
:1004C0001F0E011601501D24E96E000E1E20EA6E5B
:1004D000EFCF01F0002A01D00132002EFDD7010E2E
:1004E000011612001AC01CF0010E1D6E0F0E1F6EB9
:1004F000920E1E6EBFDF1AC01CF00F0E1E6E800E15
:100500001D6ED7DF01B018D00F50020815E30EB0F2
:1005100005D01BC00DF01AC00CF00E800C501A5CF8
:1005200004E10D501B5C01E10F2A0F50030803E1A9
:10053000000E016E5ED05BD01AC01CF0010E1D6E65
:100540000F0E1F6E920E1E6E95DF1AC01CF00F0E5E
:100550001E6E800E1D6EADDF01B00CD00F50020874
:1005600009E20C501A5C05E10D501B5C02E1030E20
:100570000F6E3DD01AC01CF0010E1D6E0F0E1F6EC7
:10058000920E1E6E77DF1AC01CF00F0E1E6E800ECC
:100590001D6E8FDF01A00BD00F50020808E30C5036
:1005A0001A5C04E10D501B5C01E10F6A20D01AC0F7
:1005B0001CF0010E1D6E0F0E1F6E920E1E6E5ADF86
:1005C0001AC01CF00F0E1E6E800E1D6E72DF01A091
:1005D0000ED00C501A5C04E10D501B5C01E10F2A97
:1005E0000F50060804E10E900F6A0D680C68010EAA
:1005F000016E120066501AC066FF6430FEE366505A
:100600001BC066FF6430FEE366501CC066FF6430AA
:10061000FEE366501DC066FF6430FEE3959A8C8A47
:10062000959A8C9A9EEF03F0F86AD09E639A000E1A
:10063000646E200E636E9598958A959C136A156A70
:10064000166A176A186A196AC150C00B0F09C16E81
:10065000070EB46E046805680668076808680968CC
:100660000A680B680C680D680E900F6A106A116AB0
:100670000E9281D5F1D5400E226EC1DD126A125064
:100680003F0808E3036A1250FADC1A6E1F6ED7DDCA
:10069000122AF5D7036A1550B5DC046EBF0E056E3D
:1006A000A40E066EB00E076E990E086E920E096EBD
:1006B000820E0A6EF80E0B6E13C01AF0010E1B6E3E
:1006C000090E1C6E1DD6132A13500A0801E1136A85
:1006D00043D685D601C014F0036A155093DC046E2E
:1006E000143C01D002D014C015F07C0E1B6E440ED9
:1006F0001A6EF8DE015201E1161E7C0E1B6E450ECD
:100700001A6EF0DE015201E1171E7C0E1B6E460EC2
:100710001A6EE8DE015201E1181E7C0E1B6E470EB8
:100720001A6EE0DE015201E1191E19C01AF018C05C
:100730001BF017C01CF016C01DF05CD7BDD703001E
:020000040030CA
:0E00000000C21E1EF387B100FFC0FFE0FF40EC
:00000001FF
;PIC18F8722
;CRC=53CB  CREATED="06-Oct-21 21:39"
