:1000000013EF01F0F76A180FF66E000EF722000EDC
:10001000F86E0900F550120080C094D4484F205665
:10002000412054454E0030383A33363A35360000D8
:1000300047483A5858202020202020202020535084
:100040003A595900434F554E5420555000006650C0
:1000500016C066FF6430FEE3665015C066FF64306C
:10006000FEE3665014C066FF6430FEE3665013C0C2
:1000700066FF6430FEE3959E8C8E959E8C9E7DEF90
:1000800000F016C018F0196A1A6A1B6A665016C08A
:1000900066FF6430FEE315C018F016C019F01A6A46
:1000A0001B6A665015C066FF6430FEE314C018F08A
:1000B00015C019F016C01AF01B6A665014C066FF0E
:1000C0006430FEE3665013C066FF6430FEE3959A29
:1000D0008C8A959A8C9A82EF00F0100E926E000E28
:1000E000956EF00E9A6E0F0E936EF19E976A8E6863
:1000F0001368146815681668AAD7166A156A146A10
:10010000136ABFD733EF01F0030E195E09E3EA6A01
:10011000190EE96EEF5004E001D000D0EF2EFDD7AC
:10012000B1EF00F018B002D0919001D091809A9078
:1001300018B202D0919201D091829A9218B402D052
:10014000919401D091849A9418B602D0919601D0DE
:1001500091869A9695928C8295928C92C80E196E81
:10016000D3D7120095908C901638176E0F0E171675
:1001700017C018F0D7DF16C018F0D4DF1200EA6AF3
:10018000130EE96EEF500DE0060E016E006A002EB0
:10019000FED7012EFBD77B0E006E002EFED7EF2E72
:1001A000F3D71200320E166EDDDF050E136EE7DF99
:1001B0002C0E166ED7DF050E136EE1DF0C0E166ED9
:1001C000D1DF010E166ECEDF020E136ED8DF34EFD4
:1001D00001F0036A135016DF1424156E166EC2DF89
:1001E000120095908C801638176E0F0E171617C0D8
:1001F00018F098DF16C018F095DF0BEF01F009003A
:10020000F55210E0F6CF13F0F7CF14F0F8CF15F059
:10021000F5CF16F0E6D713C0F6FF14C0F7FF15C0F0
:10022000F8FFEDD71200F86AD09E639A000E646E54
:10023000200E636E9598958A959C116A106AC1503C
:10024000C00B0F09C16E070EB46E046805680690F6
:10025000076A086809680A680B680C680D680E6808
:100260000F68126A3AD79ED7136A030E146EB1DF75
:100270001C0EF66E000EF76E000EF86EC0DF010E5B
:10028000136E060E146EA5DF260EF66E000EF76EC8
:10029000000EF86EB4DF020E136E146A9ADF300E91
:1002A000F66E000EF76E000EF86EA9DF030E136EE9
:1002B000050E146E8EDF440EF66E000EF76E000E05
:0802C000F86E9DDFFFD703007B
:020000040030CA
:0E00000000C21E1EF387B100FFC0FFE0FF40EC
:00000001FF
;PIC18F8722
;CRC=4DCD  CREATED="02-Oct-21 08:13"
