:1000000023EF02F0F76A180FF66E000EF722000ECB
:10001000F86E0900F5501200000102050304010208
:100020002003FF030606020503030606020303047A
:100030000503FF2020FFFF06060303040006060554
:1000400003040101FF2020FF00060205030400064F
:1000500002030304202020202020F76A6E0FF66E92
:10006000000EF722000EF86E0900F5501200000194
:1000700002FF20FFFF20FF05030401022020FF20D4
:1000800020FF2003FF030101020303FFFF202005DF
:100090000303000102200304202002050304FF20C3
:1000A000FF0503FF2020FF2020FFFF0101FF0307C2
:1000B0002020FF050304000102FF0307FF20FF05C6
:1000C00003040101FF20200420002020FF20000164
:1000D000020503040020020503040001020503FFDA
:1000E0002020FF0503042020202020202020202085
:1000F0002020F76A060FF66E010EF722000EF86E4A
:100100000900F5501200070F1F1F1F1F1F1F1F1F81
:100110001F00000000001C1E1F1F1F1F1F1F0000CC
:100120000000001F1F1F1F1F1F1F1F1F1E1C1F1F40
:100130001F1F1F1F0F071F1F1F0000001F1F000092
:100140000000001C1E1FF76A5A0FF66E010EF72200
:10015000000EF86E0900F550120080C094D466506D
:1001600014C066FF6430FEE3665013C066FF64305F
:10017000FEE3665012C066FF6430FEE3665011C0B5
:1001800066FF6430FEE3959E8C8E959E8C9E04EFF8
:1001900001F014C016F0176A186A196A665014C084
:1001A00066FF6430FEE313C016F014C017F0186A3F
:1001B000196A665013C066FF6430FEE312C016F081
:1001C00013C017F014C018F0196A665012C066FF09
:1001D0006430FEE3665011C066FF6430FEE3959A1A
:1001E0008C8A959A8C9A09EF01F0100E926E000E8F
:1001F000956EF00E9A6E0F0E936E976A8E68116868
:10020000126813681468ABD7146A136A126A116A09
:10021000C0D741EF02F0030E1D5E09E3EA6A1D0E2E
:10022000E96EEF5004E001D000D0EF2EFDD738EF9B
:1002300001F01CB002D0919001D091809A901CB234
:1002400002D0919201D091829A921CB402D09194E2
:1002500001D091849A941CB602D0919601D09186D7
:100260009A9695928C8295928C92C80E1D6ED3D7D9
:10027000120095908C901A381B6E0F0E1B161BC027
:100280001CF0D7DF1AC01CF0D4DF1200EA6A120E8D
:10029000E96EEF500DE0060E016E006A002EFED7EB
:1002A000012EFBD77B0E006E002EFED7EF2EF3D76C
:1002B000120095908C801738186E0F0E181618C003
:1002C0001CF0B7DF17C01CF0B4DF1200320E1A6E3C
:1002D000D0DF050E126EDADF280E1A6ECADF050EA9
:1002E000126ED4DF0C0E1A6EC4DF400E1A6EC1DF20
:1002F000116A11503F0808E3036A1150FADE126ECA
:10030000176ED7DF112AF5D7010E1A6EB2DF020E73
:10031000126EBCDF42EF02F01650016A155C03E278
:1003200015C000F00CD0006A080E176E15360036A6
:100330001650005CD8B0006E0136172EF7D71200A9
:10034000036A175000DF1824196E1A6E92DF12002C
:10035000006A016A1650D89017B0002600320132A8
:1003600017B200260032013217B4002600320132E3
:1003700017B600260032013217B8002600320132CB
:1003800017BA00260032013217BC002600320132B3
:1003900017BE002600320132E6EF01F013C017F05D
:1003A00014C018F0CDDF156A1550050821E315506B
:1003B000030807E1010E1324166E176E14C018F01F
:1003C000BFDF12C016F0060E176EC2D70150176AB3
:1003D000166EE8BE1706036A15501624016E1750F4
:1003E000032201500FDE166E176E63DF152ADCD76D
:1003F0001200146A14500B0825E314C015F0030E04
:10040000166E8ADF00520CE114C015F0030E166E52
:1004100083DF01C015F001C017F013C018F090DFA2
:1004200012500C0DF350166A156E036A1450152401
:10043000016E16500322015010DE156E176E39DF63
:10044000142AD8D71200F86AD09E639A000E646E00
:10045000200E636E9598958A959C106AC150C00BCA
:100460000F09C16E070EB46E046805680668076858
:10047000086809680A680B680C680D680E900F6AB6
:10048000B4D624D7102A1050640801E1106A10C0B5
:1004900015F00A0E166E40DF01C015F00A0E166E3A
:1004A0003BDF00C011F000C012F0010E136E146AA1
:1004B00075DF10C015F00A0E166E2EDF00C011F0A9
:1004C00000C012F0010E136E030E146E67DF10C031
:1004D00015F00A0E166E20DF01C015F00A0E166E1A
:1004E0001BDF00C011F000C012F00A0E136E81DF96
:1004F00010C015F00A0E166E0FDF00C011F000C01C
:1005000012F00E0E136E75DFBDD7C80E126EBEDE72
:020510000300E6
:020000040030CA
:0E00000000C21E1EF387B100FFC0FFE0FF40EC
:00000001FF
;PIC18F8722
;CRC=9C7F  CREATED="08-Oct-21 13:20"
