:10000000E6EF15F0F76A180FF66E000EF722000EF5
:10001000F86E0900F5501200C0F9A4B0999282F868
:1000200080908883C6A1868EF76A3C0FF66E000E1C
:10003000F722000EF86E0900F550120080C094D42B
:10004000F76A540FF66E000EF722000EF86E0900E4
:10005000F5501200000000000000005F00000003E7
:10006000000300143E143E14242A7F2A124333084E
:10007000666136495522500005030000001C2241EC
:10008000000041221C0014083E081408083E08081D
:1000900000503000000808080808006060000020D8
:1000A000100804023E5149453E0004027F004261AF
:1000B00051494622414949361814127F10274545B7
:1000C00045393E49494932010171090736494949D3
:1000D00036264949493E00363600000056360000B3
:1000E00008142241001414141414004122140802AC
:1000F000015109063E4159555E7E0909097E7F4935
:100100004949363E414141227F4141413E7F494973
:1001100049417F090909013E4141493A7F080808E0
:100120007F00417F4100304040403F7F0814224122
:100130007F404040407F020C027F7F0204087F3EE8
:100140004141413E7F090909061E2121215E7F09A7
:1001500009097600F76A680FF66E010EF722000EA5
:10016000F86E0900F5501200264949493201017F15
:1001700001013F4040403F1F2040201F7F201020B2
:100180007F41221C224107087008076151494543FD
:10019000007F41000002040810200000417F00049D
:1001A000020102044040404040000102040020548B
:1001B0005454787F44444438384444444438444494
:1001C000447F385454541804047E0505085454548C
:1001D0003C7F0804047800447D40002040443D00FA
:1001E0007F1028440000417F40007C047804787C24
:1001F0000804047838444444387C1414140808145F
:1002000014147C007C080404485454542004043F13
:1002100044443C4040207C1C2040201C3C4030405A
:100220003C44281028440C5050503C4464544C44E6
:10023000000836414100007F0000414136080002BD
:100240000102040231320000360039003300544804
:100250005543205441502056584C204354340000FC
:100260004C6F6E3A0000665031C666FF6430FEE3A4
:10027000665030C666FF6430FEE366502FC666FFE8
:100280006430FEE366502EC666FF6430FEE3959E42
:100290008C8E959E8C9E12002BC62DF606012E6B21
:1002A0002F6B306B66502BC666FF6430FEE32AC6A8
:1002B0002DF62BC62EF62F6B306B66502AC666FFC6
:1002C0006430FEE329C62DF62AC62EF62BC62FF67D
:1002D000306B665029C666FF6430FEE3665028C660
:1002E00066FF6430FEE3959A8C8A959A8C9A000199
:1002F00093EF01F0100E926E000E956EF00E9A6E56
:100300000F0E936EF19E976A8E6806012E692F6913
:10031000306931690001A7DF06012B6B2A6B296B5D
:10032000286B0001B9D717EF16F0030E06012E5FF8
:100330000AE3060EEA6E2E0EE96EEF5004E001D0DD
:1003400000D0EF2EFDD70001C7EF01F006012DB15F
:1003500002D0919001D091809A902DB302D09192C9
:1003600001D091829A922DB502D0919401D09184BE
:100370009A942DB702D0919601D091869A96959233
:100380008C8295928C92C80E2E6F0001CED71200EF
:1003900095908C9006012B392C6F0F0E2C172CC6C4
:1003A0002DF60001D3DF2BC62DF6D0DF1200060E8E
:1003B000EA6E290EE96EEF500DE0060E016E006A3E
:1003C000002EFED7012EFBD77B0E006E002EFED72F
:1003D000EF2EF3D71200320E06012B6F0001D8DF8B
:1003E000050E0601296F0001E2DF2C0E06012B6FBE
:1003F0000001CEDF050E0601296F0001D8DF0C0ECB
:1004000006012B6F0001C4DF010E06012B6F0001F6
:10041000BFDF020E0601296F0001C9DF29EF16F0C8
:10042000036A060128510001FFDD060129252A6F14
:100430002B6F0001ADDF120095908C8006012B39E7
:100440002C6F0F0E2C172CC62DF600017FDF2BC64C
:100450002DF67CDF12000900F55210E0F6CF28F6E9
:10046000F7CF29F6F8CF2AF6F5CF2BF6E5DF28C629
:10047000F6FF29C6F7FF2AC6F8FFEDD712009892BB
:100480008F92996A2BC690FF98908F8098908F904A
:10049000060E006E002EFED7000012000601485125
:1004A0004A03F3CF01F0F4CF00F04B03F3500026E2
:1004B00049514A03F3500020026E00011200060168
:1004C000285302E02B6901D02B6B296B29510708B7
:1004D00023E32A6B2A51BF081DE3496B29C648F65E
:1004E0004B6BC00E4A6F0001D9DF02C02DF601C070
:1004F0002CF606012A510124016E000E0220036E23
:1005000001501A0FE96E000E0320EA6E2BC6EFFFB2
:100510002A2BE0D7292BDAD7166ABF0E186E176A76
:100520003F0E196E0001120098928F82996A2BC6B5
:1005300090FF98908F8098908F9000D000D01200FC
:1005400098948F940601286B2851070830E32851AE
:10055000B8092A6F2B6F000192DF400E06012B6F46
:1005600000018DDF0601296B29513F081EE3496B0D
:1005700028C648F64B6BC00E4A6F00018FDF01C0E2
:100580002AF6060129510124016E000E0220036E95
:1005900001501A0FE96E000E0320EA6EEFCF2BF622
:1005A0000001C2DF0601292BDFD7282BCDD7989475
:1005B0008F8498968F96286B2851070831E328512D
:1005C000B8092A6F2B6F00015ADF400E06012B6F0E
:1005D000000155DF400E0601296F29517F081EE3F7
:1005E000496B28C648F64B6BC00E4A6F000156DFB8
:1005F00001C02AF6060129510124016E000E0220D5
:10060000036E01501A0FE96E000E0320EA6EEFCF61
:100610002BF6000189DF0601292BDFD7282BCCD749
:1006200098968F8698988F98286B2851070831E301
:100630002851B8092A6F2B6F000121DF400E0601F7
:100640002B6F00011CDF800E0601296F2951BF08A6
:100650001EE3496B28C648F64B6BC00E4A6F00017B
:100660001DDF01C02AF6060129510124016E000E8A
:100670000220036E01501A0FE96E000E0320EA6E8D
:10068000EFCF2BF6000150DF0601292BDFD7282BF7
:10069000CCD798988F880001120098948F949896E0
:1006A0008F9698988F983F0E06012B6F0001E7DE1A
:1006B0000601286B000103DF43DF98948F8498962E
:1006C0008F8698988F8863EF16F0016A026A006A35
:1006D000036A0601335102E1325118E0100E346F03
:1006E000D89030373137003603363351035C02E19E
:1006F0003251005C07E33251005ED8A0030633514B
:10070000035ED88001360236342FEAD7000112008A
:1007100029C631F628C630F6030E0601336FE80EFF
:10072000326F0001D2DF02C02FF601C02EF602C0E8
:1007300031F601C030F60601336B0A0E326F00014C
:10074000C4DF00C02EF603C02FF603C003F0005034
:10075000000158DCE8CF2AF629C631F628C630F663
:100760000601336B640E326F0001AFDF02C02FF65B
:1007700001C02EF602C031F601C030F60601336B1F
:100780000A0E326F0001A1DF00C02EF603C02FF663
:1007900003C003F00050000135DCE8CF2BF629C67A
:1007A00031F628C630F60601336B0A0E326F0001AF
:1007B0008CDF02C02FF601C02EF602C031F601C058
:1007C00030F60601336B0A0E326F00017EDF00C087
:1007D0002EF603C02FF603C003F00050000112DC18
:1007E000E8CF2CF629C631F628C630F60601336B61
:1007F0000A0E326F000169DF00C02EF603C02FF62B
:1008000003C003F00050000102EC00F0E8CF2DF629
:1008100006012A51C00809E12A692B51C00805E1E7
:100820002B692C51C00801E12C692AC62EF62BC673
:100830002FF62CC630F62DC631F6000114DD72EF0E
:1008400016F08E0E006E5DC601F05CC602F0036A03
:10085000015209E102C001F0026A080E005E015275
:1008600002E1006A08D0D89001BE04D002360136F9
:100870000006F9D7019E120059C660F606015D51C7
:10088000601B60AF05D0D894D89059BFD8802FD0C6
:1008900059C660F65CC661F65851615F06E060AF0C
:1008A00026D0D850010AD86E22D05DC661F65951C3
:1008B000615F06E060AF1BD0D850010AD86E17D038
:1008C0005EC661F65A51615F06E060AF10D0D85045
:1008D000010AD86E0CD05FC661F65B51615F06E01D
:1008E00060AF05D0D850010AD86E01D0D890000171
:1008F000120006015151D8B4A5D05D6F5551D8B43E
:10090000A1D05D5F05E37F0E5D27D8B09BD006D0F8
:10091000810E5D5FD8A096D0D8B494D05DC600F0AB
:10092000016A026A036A5C6B52C65BF65B8F53C650
:100930005AF654C659F6190E5D6F5851595F0DE2BB
:10094000010E5A5F0AE25B5F08E25C5F06E25C2B25
:100950005B2B5A2B5851592728D057515A5F12E216
:10096000010E5B5F0FE25C5F0DE25C2B5B2B57516E
:100970005A275851592719E35A2B17E15B2B15E1D8
:100980005C2B13D0565180095B5F0EE2010E5C5F59
:100990000BE25C2B565180095B2757515A27E9E33C
:1009A0005B2BE7E15C2BE5D703805D2F01D00BD0FB
:1009B000D89059375A375B375C37D89003360236B0
:1009C00001365E37BAD75EA106D0D8900132023226
:1009D00003325E3302D0000635E05EBF1ED0D890F1
:1009E00059375A375B375C375851595F07E2010E68
:1009F0005A5F04E25B5F02E25C5F1AE357515A5FA1
:100A000005E2010E5B5F02E25C5F12E35651800972
:100A10005B5F03E2010E5C5F0BE3032A09E1022A3C
:100A200007E1012A05E1002A0DE00132023203321A
:100A300052C65DF656515D1B5DAF02D0018E06D0E9
:100A4000019E04D0006A016A026A036A0001120072
:100A50008E0E006E06015851005E59C602F05AC64D
:100A600001F0028E005209E0D890025202E10152D8
:100A700004E002320132002EF7D759AF05D0011E33
:100A8000021E012AD8B4022A0001120006015851A0
:100A9000D8B471D0006E5C51D8B46DD0002604E398
:100AA000810E002668E204D07F0E005E64E363E0FE
:100AB00059C660F65D51601B598F5D8F5B515F03B6
:100AC000F4CF62F65A515E03F4CF03F0F3CF61F630
:100AD0005F03F3506227F4506123000E03225B5141
:100AE0005E03F3506227F4506123000E026A032272
:100AF000022259515F03F3506127F4500322000E84
:100B0000022259515E03F3500326F4500222000ED4
:100B1000016A01225B515D03F3506127F450032207
:100B2000000E022201225A515D03F3500326F450B5
:100B30000222000E012259515D03F3500226F450A7
:100B40000122002A01BE05D0613703360236013684
:100B50000006000E61AF0AD0032A022201220150D2
:100B600005E1025003E1035001E1002A60BF018E5C
:100B700060AF019E04D0006A016A026A036A000144
:100B80001200800ED8A202D00601611B0601666B1E
:100B9000676B5DC665F66151651B5C51D8B4DFD0EB
:100BA000646F006E6051D8B4E3D0645FD8B483D072
:100BB0003EE361C66AF66A8F62C669F663C668F686
:100BC000676BD8906A33693368336733642FF8D71B
:100BD00065AF03D06681E0D0669164916689060EA8
:100BE000EA6E5F0EE96EEBD0669965BF0AD064A12C
:100BF00013D06A33693368336733002AD8B4C7D057
:100C00000BD06ABF0CD0D8906737683769376A371E
:100C10000006D8B4BCD0F5D7668D6DD0669D5DC694
:100C200065F65DAF02D06A8FABD06A9FA9D060C66F
:100C300064F660C600F05C51645F5DC66AF66A8F58
:100C40005EC669F65FC668F6676BD8906A3369332B
:100C500068336733642FF8D765AF03D066839CD0C1
:100C600066936491668B060EEA6E630EE96EA7D0FA
:100C7000669B65BF0AD064A113D06A3369336833B9
:100C80006733002AD8B483D00BD06ABF0CD0D89079
:100C90006737683769376A370006D8B478D0F5D730
:100CA000668F29D0669F61C665F661AF02D06A8FF4
:100CB00067D06A9F65D061C66AF66A8F62C669F6B8
:100CC00063C668F665AF04D06A9F668565D0669591
:100CD000676B6491060EEA6E5F0EE96E70D065BFB9
:100CE0001CD05DC665F664A106D06A3369336833EB
:100CF0006733002A4CE067AF0BD0682B09E1692B02
:100D000007E16A2B05E16A3369336833002A3FE063
:100D100066BD84D766BFC6D71CD0800E6A1B6AAF7B
:100D200004D03AD061C665F60AD05DC665F66A534E
:100D300006E1695304E1685302E1006A21D06ABF09
:100D400008D0D8906737683769376A37002EF7D7E9
:100D50001ED065AF02D06A8F13D06A9F11D060C6D3
:100D600000F061C66AF662C669F663C668F608D026
:100D70005CC600F05DC66AF65EC669F65FC668F6D8
:100D80006AC601F069C602F068C603F034D0006A92
:100D9000016A026A036A2FD0676B681F691F6A1FA6
:100DA000671F672B05E1682B03E1692B01E16A2BC3
:100DB00066B112D766B354D766B589D7B3D7EF50AB
:100DC000682705E3692B03E16A2BD8B46481ED52EF
:100DD000EF50692703E36A2BD8B46481ED52EF50DA
:100DE000EFBE01D0800A6A27D8B0648166B9FCD60C
:100DF00066BB3ED774D700011200060157914BC65F
:100E000050F64AC64FF649C64EF648C64DF64BC692
:100E10005BF64AC65AF649C659F648C658F65F6B9D
:100E20005E6B5D6B5C6B000127DD06E3060157819D
:100E30004E51800A4E6F000150C65BF64FC65AF6FF
:100E40004EC659F64DC658F606015F6B5E6B5D6B7C
:100E50008E0E5C6F000110DD01E217E150C65BF6FB
:100E60004FC65AF64EC659F64DC658F6F1DD02C0C9
:100E70005DF601C05CF6E5DC03C054F602C053F633
:100E800001C052F600C051F6C7D050C65BF64FC63F
:100E90005AF64EC659F64DC658F6800E06015F6FDB
:100EA000960E5E6F180E5D6F960E5C6F0001E4DCAF
:100EB000D8A0AAD050C65BF64FC65AF64EC659F611
:100EC0004DC658F606015F6B5E6B5D6B700E5C6F16
:100ED0000001DCDD03C05BF602C05AF601C059F622
:100EE00000C058F6B5DD02C056F601C055F650C632
:100EF0005BF64FC65AF64EC659F64DC658F6060171
:100F00005F6B5E6B5D6B700E5C6F0001BFDD03C0DD
:100F10005BF602C05AF601C059F600C058F656C634
:100F20005DF655C65CF68DDCD8825BC65FF65AC6A8
:100F30005EF659C65DF658C65CF603C063F602C09D
:100F400062F601C061F600C060F61BDE06015B6B55
:100F50005A6B596B8E0E586F03C05FF602C05EF677
:100F600001C05DF600C05CF6000190DD03C050F6E4
:100F700002C04FF601C04EF600C04DF656C65DF6F3
:100F800055C65CF65EDC06015B6B5A6B596B8E0EC8
:100F9000586F03C05FF602C05EF601C05DF600C088
:100FA0005CF6000173DD03C054F602C053F601C0C5
:100FB00052F600C051F650C65BF64FC65AF64EC602
:100FC00059F64DC658F644DD02C05DF601C05CF628
:100FD00038DCD89254C65FF653C65EF652C65DF64C
:100FE00051C65CF603C063F602C062F601C061F64A
:100FF00000C060F6C6DD03C054F602C053F601C05F
:1010000052F600C051F608D050C654F64FC653F6FB
:101010004EC652F64DC651F650C65BF64FC65AF64E
:101020004EC659F64DC658F613DD02C05DF601C036
:101030005CF607DCD88250C65FF64FC65EF64EC639
:101040005DF64DC65CF603C063F602C062F601C0F1
:1010500061F600C060F695DD03C050F602C04FF6A1
:1010600001C04EF600C04DF6060157A103D0525103
:10107000800A526F50C65BF64FC65AF64EC659F6F6
:101080004DC658F65F6B5E6B5D6B5C6B00013CECB4
:1010900004F03AE0060157A11BD04C5319E1D88265
:1010A00054C65FF653C65EF652C65DF651C65CF690
:1010B000636B626B616B7F0E606F000162DD03C06A
:1010C00054F602C053F601C052F600C051F60601B4
:1010D00057B11BD04C2D19D0D89254C65FF653C6C9
:1010E0005EF652C65DF651C65CF6636B626B616B71
:1010F0007F0E606F000145DD03C054F602C053F659
:1011000001C052F600C051F606014BC65BF64AC656
:101110005AF649C659F648C658F65F6B5E6B5D6B6A
:101120005C6B00013CEC04F006E10601546B536B70
:10113000526B516B000151C600F052C601F053C60C
:1011400002F054C603F0120047C64BF646C64AF6F4
:1011500045C649F644C648F6010E06014C6F00012B
:101160004CDE21EF09F047C64BF646C64AF645C6A7
:1011700049F644C648F606014C6B00013EDE45EFD9
:1011800009F03BC65BF63AC65AF639C659F638C678
:1011900058F606015F6B5E6B5D6B5C6B00013CECAF
:1011A00004F0D8B49FD037C654F636C653F635C6C9
:1011B00052F634C651F63BC658F63AC657F639C60B
:1011C00056F638C655F679EC04F003C043F602C073
:1011D00042F601C041F600C040F603C05BF602C013
:1011E0005AF601C059F600C058F606015F6B5E6BF7
:1011F0005D6B5C6B00013CEC04F024E337C654F6F5
:1012000036C653F635C652F634C651F63BC658F6C6
:101210003AC657F639C656F638C655F679EC04F094
:1012200003C043F602C042F601C041F600C040F6DA
:1012300003C047F602C046F601C045F600C044F6BA
:1012400083D723D037C654F636C653F635C652F682
:1012500034C651F63BC658F63AC657F639C656F666
:1012600038C655F679EC04F003C043F602C042F6E6
:1012700001C041F600C040F603C047F602C046F682
:1012800001C045F600C044F66ED703C03FF602C069
:101290003EF601C03DF600C03CF63FC65BF63EC6DA
:1012A0005AF63DC659F63CC658F63BC65FF63AC6F6
:1012B0005EF639C65DF638C65CF646EC05F0D882B7
:1012C00037C65FF636C65EF635C65DF634C65CF6E2
:1012D00003C063F602C062F601C061F600C060F6AA
:1012E00050DC00D012008E0E006E4FC601F04EC6CC
:1012F00002F0036A01AE05D0011E021E022A01E1BE
:10130000012A015209E102C001F0026A080E005EE2
:10131000015202E1006A0ED0D89001BE04D002361C
:1013200001360006F9D706014FAF02D0000102D006
:10133000019E000112003BC63FF63AC63EF639C692
:101340003DF638C63CF63FC65BF63EC65AF63DC68D
:1013500059F63CC658F606015F6B5E6B5D6B7F0EFF
:101360005C6F00013CEC04F0D8B49ED1060E06017F
:101370004E6F3C0E4EC6EAFFE96E7E0EEF6ED882CF
:101380003FC65FF63EC65EF63DC65DF63CC65CF601
:10139000636B626B616B7F0E606F0001C1EC05F0E7
:1013A00003C050F602C04FF601C04EF600C04DF625
:1013B000D8923FC65FF63EC65EF63DC65DF63CC6B9
:1013C0005CF60601636B626B616B7F0E606F000100
:1013D000C1EC05F050C654F64FC653F64EC652F651
:1013E0004DC651F603C058F602C057F601C056F676
:1013F00000C055F679EC04F003C03FF602C03EF69B
:1014000001C03DF600C03CF63FC65BF63EC65AF64C
:101410003DC659F63CC658F63FC65FF63EC65EF678
:101420003DC65DF63CC65CF646EC05F003C04BF6E7
:1014300002C04AF601C049F600C048F6990E0601FE
:101440005B6F470E5A6F8A0E596F7F0E586F4BC6EF
:101450005FF64AC65EF649C65DF648C65CF6000110
:1014600046EC05F003C050F602C04FF601C04EF640
:1014700000C04DF6D89203C05FF602C05EF601C010
:101480005DF600C05CF60601636B626B616B800EFB
:10149000606F0001C1EC05F003C043F602C042F6E4
:1014A00001C041F600C040F64C0E06015B6FF30E22
:1014B0005A6F3A0E596F7B0E586F4BC65FF64AC68D
:1014C0005EF649C65DF648C65CF6000146EC05F0DE
:1014D00003C050F602C04FF601C04EF600C04DF6F4
:1014E000D89203C05FF602C05EF601C05DF600C090
:1014F0005CF62B0E0601636F9D0E626FDF0E616F4F
:101500007E0E606F0001C1EC05F003C047F602C01B
:1015100046F601C045F600C044F647C65BF646C62F
:101520005AF645C659F644C658F64BC65FF64AC643
:101530005EF649C65DF648C65CF646EC05F003C0AB
:1015400050F602C04FF601C04EF600C04DF6D892DC
:1015500003C05FF602C05EF601C05DF600C05CF637
:101560000601636B626B616B7F0E606F0001C1EC03
:1015700005F003C047F602C046F601C045F600C0BC
:1015800044F63FC65BF63EC65AF63DC659F63CC623
:1015900058F643C65FF642C65EF641C65DF640C6E3
:1015A0005CF646EC05F003C050F602C04FF601C0F1
:1015B0004EF600C04DF603C054F602C053F601C00B
:1015C00052F600C051F647C658F646C657F645C60D
:1015D00056F644C655F679EC04F003C043F602C053
:1015E00042F601C041F600C040F6060E06014E6FFD
:1015F000380E4EC6EAFFE96E7E0EEF5C4C6F4CAFC4
:1016000014D0000ED8804C554F6B4E6F4EBF4F0715
:10161000000169DE00C044F60150800A0601456FF2
:1016200002C046F603C047F610D04F6B4CC64EF6CC
:101630004EBF4F07000157DE03C047F602C046F613
:1016400001C045F600C044F6060147C65BF646C633
:101650005AF645C659F644C658F6180E5F6F720E14
:101660005E6F310E5D6F7E0E5C6F000146EC05F023
:10167000D89243C65FF642C65EF641C65DF640C6E6
:101680005CF603C063F602C062F601C061F600C0FA
:1016900060F6C1EC05F003C043F602C042F601C09B
:1016A00041F600C040F606D00601436B426B416B29
:1016B000406B000140C600F041C601F042C602F096
:1016C00043C603F012003BC65BF63AC65AF639C66B
:1016D00059F638C658F63B0E06015F6FAA0E5E6FCC
:1016E000380E5D6F7F0E5C6F000146EC05F003C0A5
:1016F0005BF602C05AF601C059F600C058F628EC55
:1017000005F001C048F6060149913BC63FF63AC6CE
:101710003EF639C63DF638C63CF63BC65BF63AC6E1
:101720005AF639C659F638C658F65F6B5E6B5D6B74
:101730005C6B00013CEC04F007E306014981486D55
:101740003D51800A3D6F00010601436B426B416BC6
:10175000406B060E4B6F400E4BC6EAFFE96E7F0EE4
:101760004825EF6E3FC65BF63EC65AF63DC659F6B3
:101770003CC658F63B0E5F6FAA0E5E6F380E5D6F6B
:101780007F0E5C6F000146EC05F003C04DF602C011
:101790004CF601C04BF600C04AF606014F6B48C636
:1017A0004EF64EBF4F0700019EDDD8824DC65FF654
:1017B0004CC65EF64BC65DF64AC65CF603C063F6E1
:1017C00002C062F601C061F600C060F6C1EC05F02F
:1017D00003C03FF602C03EF601C03DF600C03CF635
:1017E0007C0E06015B6F880E5A6F590E596F720E90
:1017F000586F3FC65FF63EC65EF63DC65DF63CC618
:101800005CF6000146EC05F003C04DF602C04CF654
:1018100001C04BF600C04AF6D89203C05FF602C082
:101820005EF601C05DF600C05CF6E00E0601636F77
:10183000970E626F260E616F750E606F0001C1EC2E
:1018400005F003C047F602C046F601C045F600C0E9
:1018500044F647C65BF646C65AF645C659F644C630
:1018600058F63FC65FF63EC65EF63DC65DF63CC620
:101870005CF646EC05F003C04DF602C04CF601C024
:101880004BF600C04AF6D89203C05FF602C05EF67F
:1018900001C05DF600C05CF6C40E0601636F1D0E4C
:1018A000626F1E0E616F780E606F0001C1EC05F073
:1018B00003C047F602C046F601C045F600C044F634
:1018C00047C65BF646C65AF645C659F644C658F6AC
:1018D0003FC65FF63EC65EF63DC65DF63CC65CF6AC
:1018E00046EC05F003C04DF602C04CF601C04BF6C5
:1018F00000C04AF6D89203C05FF602C05EF601C08F
:101900005DF600C05CF65E0E0601636F500E626FFE
:10191000630E616F7A0E606F0001C1EC05F003C0C9
:1019200047F602C046F601C045F600C044F647C679
:101930005BF646C65AF645C659F644C658F63FC643
:101940005FF63EC65EF63DC65DF63CC65CF646EC0E
:1019500005F003C04DF602C04CF601C04BF600C0C6
:101960004AF6D89203C05FF602C05EF601C05DF68B
:1019700000C05CF61A0E0601636FFE0E626F750EF4
:10198000616F7C0E606F0001C1EC05F003C047F68B
:1019900002C046F601C045F600C044F647C65BF6F5
:1019A00046C65AF645C659F644C658F63FC65FF6CF
:1019B0003EC65EF63DC65DF63CC65CF646EC05F0FE
:1019C00003C04DF602C04CF601C04BF600C04AF60B
:1019D000D89203C05FF602C05EF601C05DF600C09B
:1019E0005CF6180E0601636F720E626F310E616F46
:1019F0007E0E606F0001C1EC05F003C047F602C027
:101A000046F601C045F600C044F63FC65BF63EC64A
:101A10005AF63DC659F63CC658F647C65FF646C666
:101A20005EF645C65DF644C65CF646EC05F0D89217
:101A300006015F6B5E6B5D6B7F0E5C6F03C063F6D0
:101A400002C062F601C061F600C060F60001C1ECA0
:101A500005F043C65BF642C65AF641C659F640C683
:101A600058F603C05FF602C05EF601C05DF600C026
:101A70005CF646EC05F003C043F602C042F601C036
:101A800041F600C040F6060149A119D0546B536BD2
:101A9000526B7F0E516F43C658F642C657F641C689
:101AA00056F640C655F6000179EC04F003C043F643
:101AB00002C042F601C041F600C040F6060140C631
:101AC00000F041C601F042C602F043C603F0000137
:101AD00012002FC65BF62EC65AF62DC659F62CC636
:101AE00058F606015F6B5E6B5D6B5C6B00013CEC56
:101AF00004F0D8A0CDD033C637F632C636F631C69C
:101B000035F630C634F606013B6B3A6B396B7F0E07
:101B1000386F0001C1EC08F003C037F602C036F69A
:101B200001C035F600C034F603C05BF602C05AF6B9
:101B300001C059F600C058F606015F6B5E6B5D6B25
:101B40005C6B00013CEC04F0D8A4A2D033C637F69D
:101B500032C636F631C635F630C634F606013B6B72
:101B60003A6B396B800E386F0001C1EC08F003C08E
:101B700037F602C036F601C035F600C034F603C0B1
:101B80005BF602C05AF601C059F600C058F60601CD
:101B90005F6B5E6B5D6B5C6B00013CEC04F03BE1EA
:101BA00006012D51800A356F2FC63BF62EC63AF638
:101BB000396F2CC638F600019BEC09F003C037F6EC
:101BC00002C036F601C035F600C034F603C05BF63D
:101BD00002C05AF601C059F600C058F633C65FF687
:101BE00032C65EF631C65DF630C65CF646EC05F0F0
:101BF00003C037F602C036F601C035F600C034F631
:101C000003C03BF602C03AF601C039F600C038F610
:101C10005ADDDDD03CD006012D51800A356F2FC62C
:101C20003BF62EC63AF6396F2CC638F600019BEC0F
:101C300009F003C037F602C036F601C035F600C021
:101C400034F603C05BF602C05AF601C059F600C074
:101C500058F633C65FF632C65EF631C65DF630C65C
:101C60005CF646EC05F003C037F602C036F601C05C
:101C700035F600C034F603C03BF602C03AF601C0A8
:101C800039F600C038F61FDD800E011AA0D09FD0B3
:101C90002FC65BF62EC65AF62DC659F62CC658F638
:101CA00006015F6B5E6B5D6B5C6B00013CEC04F0EE
:101CB00030E333C637F632C636F631C635F630C6AF
:101CC00034F606013B6B3A6B396B7F0E386F0001BF
:101CD000C1EC08F003C037F602C036F601C035F695
:101CE00000C034F603C05BF602C05AF601C059F6D4
:101CF00000C058F606015F6B5E6B5D6B5C6B0001AC
:101D00003CEC04F006E0006A016A026A036A5FD0F4
:101D10005ED02FC65BF62EC65AF62DC659F62CC6D7
:101D200058F606015F6B5E6B5D6B5C6B00013CEC13
:101D300004F012E133C65BF632C65AF631C659F6E4
:101D400030C658F606015F6B5E6B5D6B5C6B000125
:101D50003CEC04F001E237E12FC63BF62EC63AF622
:101D60002DC639F62CC638F69BEC09F003C037F6C1
:101D700002C036F601C035F600C034F603C05BF68B
:101D800002C05AF601C059F600C058F633C65FF6D5
:101D900032C65EF631C65DF630C65CF646EC05F03E
:101DA00003C037F602C036F601C035F600C034F67F
:101DB00003C03BF602C03AF601C039F600C038F65F
:101DC00082DC05D004D0006A016A026A036AAAEFC5
:101DD00016F006012A51016A295D03E229C600F0C6
:101DE0000CD0006A080E2B6F293700362A51005C90
:101DF000D8B0006E01362B2FF7D700011200938068
:101E000081B004D0000E016E17D014D0938281B23D
:101E100004D0010E016E10D00DD0938481B404D093
:101E2000020E016E09D006D0938681B603D0030E50
:101E3000016E02D0FF0E016E22EF0FF0060128693D
:101E40000001DDD701C029F60601293D01D00DD0E2
:101E500006B20BD0112A1150020806E21050040DF0
:101E6000F3502925286F068233D0293D21D006B2B0
:101E70001FD0116A102A030E1016105204E1939E0F
:101E80008A8E93988A98102C04D093988A88939A73
:101E90008A9A1050020804E1939A8A8A939C8A9C39
:101EA0001050030804E1939C8A8C939E8A9E10D064
:101EB000293D01D005D006A203D0030E116E08D033
:101EC000293D06D0112A1150050802E20692116A36
:101ED00028C601F00001F9EF16F00601286B285121
:101EE000070821E3036A2851080FE96E000E03205A
:101EF000EA6EEFCF8DFF966A800E006E2851016E5C
:101F000004E0D8900032012EFCD70050FF0A976AF7
:101F10008E6E010E296F0001D7EC01F0976A8E6872
:101F20000601282BDCD700010EEF17F006012A511D
:101F3000070B006E2A31016E013201321F0E0116AD
:101F400001502C25E96E000E2D21EA6E016A012A4E
:101F5000002A01D00136002EFDD72B5303E001509B
:101F6000EF1203D0011E0150EF160001120006010E
:101F70002A51070B006E2A31016E013201321F0E09
:101F8000011601502B25E96E000E2C21EA6EEFCFD1
:101F900001F0002A01D00132002EFDD7010E0116FA
:101FA0000001120028C62AF6010E06012B6F0F0E43
:101FB0002D6F920E2C6F0001B9DF28C62AF60F0E86
:101FC00006012C6F800E2B6F0001D1DF01B019D0FC
:101FD0000750020816E306B005D029C605F028C64A
:101FE00004F0068004500601285D04E10550295DD7
:101FF00001E1072A0750030803E1000E016E6FD0CC
:102000006AD028C62AF6010E06012B6F0F0E2D6F1F
:10201000920E2C6F00018ADF28C62AF60F0E0601E9
:102020002C6F800E2B6F0001A2DF01B00DD0075086
:1020300002080AE204500601285D05E10550295D09
:1020400002E1030E076E47D028C62AF6010E0601EC
:102050002B6F0F0E2D6F920E2C6F000167DF28C6BD
:102060002AF60F0E06012C6F800E2B6F00017FDF0A
:1020700001A00CD00750020809E304500601285DB6
:1020800004E10550295D01E1076A25D028C62AF63A
:10209000010E06012B6F0F0E2D6F920E2C6F00019B
:1020A00045DF28C62AF60F0E06012C6F800E2B6F17
:1020B00000015DDF01A010D004500601285D04E19D
:1020C0000550295D01E1072A0750060804E1069042
:1020D000076A056804680001010E016E060100012F
:1020E0001200665028C666FF6430FEE3665029C6BB
:1020F00066FF6430FEE366502AC666FF6430FEE386
:1021000066502BC666FF6430FEE3959A8C8A959ADA
:102110008C9A4CEF17F006013431386F383338336E
:102120001F0E38173531396F393339331F0E3917D0
:102130003951385DD8A4B0D0365357E0496B38C612
:1021400048F64B6BC00E4A6F00014EEC02F001C026
:102150003AF6060133510124016E000E0220036E8F
:1021600001501A0F016E000E032201C03AF603C09F
:102170003BF6496B38C648F64B6BC00E4A6F000100
:102180004EEC02F002C03DF601C03CF606013351B0
:102190000124016E000E0220036E01501A0FE96E39
:1021A000000E0320EA6EEFCF3CF63451070B016EB0
:1021B0003D69015204E0D8903D37012EFCD73551DE
:1021C000070BFF0A080F016E0068015204E0D89067
:1021D0000032012EFCD700503D153C113C6F3BC630
:1021E000EAFF3AC6E9FFEF6E56D0496B38C648F6AB
:1021F0004B6BC00E4A6F00014EEC02F001C03AF684
:10220000060133510124016E000E0220036E0150BD
:102210001A0F016E000E032201C03AF603C03BF60E
:10222000496B38C648F64B6BC00E4A6F00014EEC46
:1022300002F002C03DF601C03CF606013351012414
:10224000016E000E0220036E01501A0FE96E000E9F
:102250000320EA6EEFCF3CF63451070B016E3D6967
:10226000015204E0D8903D37012EFCD73551070BC1
:10227000FF0A080F016E0068015204E0D890003296
:10228000012EFCD700503D15FF0A3C153BC6EAFF66
:102290003AC6E9FFEF6E70D13653D8B4B6D0496B69
:1022A00038C648F64B6BC00E4A6F00014EEC02F088
:1022B00001C03AF6060133510124016E000E0220DE
:1022C000036E01501A0F016E000E032201C03AF690
:1022D00003C03BF6496B38C648F64B6BC00E4A6FDD
:1022E00000014EEC02F002C03DF601C03CF60601D2
:1022F00033510124016E000E0220036E01501A0FAB
:10230000E96E000E0320EA6EEFCF3CF63451070B66
:10231000016E0068015204E0D8900036012EFCD70F
:1023200000503C113BC6EAFF3AC6E9FFEF6E496B2D
:1023300039C648F64B6BC00E4A6F00014EEC02F0F6
:1023400001C03AF6060133510124016E000E02204D
:10235000036E01501A0F016E000E032201C03AF6FF
:1023600003C03BF6496B39C648F64B6BC00E4A6F4B
:1023700000014EEC02F002C03DF601C03CF6060141
:1023800033510124016E000E0220036E01501A0F1A
:10239000E96E000E0320EA6EEFCF3CF63551070BD5
:1023A000FF0A080F016E0068015204E0D890003265
:1023B000012EFCD700503C113BC6EAFF3AC6E9FFAC
:1023C000EF6E010E3825376F3951375D1DE2496BCD
:1023D00037C648F64B6BC00E4A6F00014EEC02F058
:1023E00002C03BF601C03AF6060133510124016EEA
:1023F000000E0220036E01501A0FE96E000E03203A
:10240000EA6EEF68372BE0D7B7D0496B38C648F68D
:102410004B6BC00E4A6F00014EEC02F001C03AF661
:10242000060133510124016E000E0220036E01509B
:102430001A0F016E000E032201C03AF603C03BF6EC
:10244000496B38C648F64B6BC00E4A6F00014EEC24
:1024500002F002C03DF601C03CF6060133510124F2
:10246000016E000E0220036E01501A0FE96E000E7D
:102470000320EA6EEFCF3CF63451070B016E006883
:10248000015204E0D8900036012EFCD70050FF0A1C
:102490003C153BC6EAFF3AC6E9FFEF6E496B39C609
:1024A00048F64B6BC00E4A6F00014EEC02F001C0C3
:1024B0003AF6060133510124016E000E0220036E2C
:1024C00001501A0F016E000E032201C03AF603C03C
:1024D0003BF6496B39C648F64B6BC00E4A6F00019C
:1024E0004EEC02F002C03DF601C03CF6060133514D
:1024F0000124016E000E0220036E01501A0FE96ED6
:10250000000E0320EA6EEFCF3CF63551070BFF0AB1
:10251000080F016E0068015204E0D8900032012ECD
:10252000FCD70050FF0A3C153BC6EAFF3AC6E9FF5C
:10253000EF6E010E3825376F3951375D1DE2496B5B
:1025400037C648F64B6BC00E4A6F00014EEC02F0E6
:1025500002C03BF601C03AF6060133510124016E78
:10256000000E0220036E01501A0FE96E000E0320C8
:10257000EA6EEF6A372BE0D70001120006014553DF
:1025800034E04431006E003200321F0E001600C0ED
:1025900047F6496B00C048F64B6BC00E4A6F00010E
:1025A0004EEC02F002C047F601C046F60601435168
:1025B0000124016E000E0220036E01501A0F016EFD
:1025C000000E032201C0E9FF03C0EAFF4451070BDC
:1025D000466F010E006E4651016E04E0D890003641
:1025E000012EFCD70050EF1234D04431006E00327F
:1025F00000321F0E001600C047F6496B00C048F6B7
:102600004B6BC00E4A6F00014EEC02F002C047F661
:1026100001C046F6060143510124016E000E02205E
:10262000036E01501A0F016E000E032201C0E9FF74
:1026300003C0EAFF4451070B466F010E006E46517E
:10264000016E04E0D8900036012EFCD70050FF0A3E
:10265000EF1600011200010E06013C6F3D6F426B48
:1026600033C616F034C617F035C618F036C619F062
:102670003351355D436F435143AF03D0000ED880D3
:1026800043553B6B3A6F3451365D436F435143AF13
:1026900003D0000ED8804355396B386F3351355D08
:1026A00005E23C6933C618F035C616F03451365D84
:1026B00005E23D6934C619F036C617F039513B5D65
:1026C0003AE303E138513A5D36E3D8903837393789
:1026D0003A51385D006E3B51395900C03EF63F6FAC
:1026E0003A513E5D406F3B513F59416F3B5303E1CF
:1026F00042513A5D1FE333C643F634C644F637C64B
:1027000045F600013BDF06013FAF08D038513E27B8
:1027100039513F233C513325336F0AD040513E2776
:1027200041513F233C513325336F3D513425346FA4
:10273000422BDCD735D0D8903A373B3738513A5D09
:10274000006E39513B5900C03EF63F6F38513E5D37
:10275000406F39513F59416F395303E14251385D60
:102760001FE333C643F634C644F637C645F60001C8
:1027700005DF06013FAF08D03A513E273B513F23CA
:102780003D513425346F0AD040513E2741513F23FB
:102790003C513325336F3D513425346F422BDCD708
:1027A0000001120028C62EF62AC62FF629C630F6DA
:1027B0002BC631F6060128512A5D04E22AC62EF600
:1027C00028C62FF629512B5D04E22BC630F629C608
:1027D00031F62C5313E02EC632F632512F5D0DE345
:1027E00032C633F630C634F631C635F62DC636F667
:1027F000000191DC0601322BF0D72AD02EC633F629
:1028000030C634F631C635F62DC636F6000183DC07
:102810002FC633F630C634F631C635F62DC636F639
:102820007ADC28C633F629C634F62AC635F629C618
:1028300036F62DC637F60FDF28C633F62BC634F62C
:102840002AC635F62BC636F62DC637F604DF060146
:102850002EC616F02FC618F030C617F031C619F084
:1028600000015AEF17F0159006012DB115802CC606
:1028700014F028C612F02AC613F00694000167EF80
:1028800017F006B405D012C016F013C017F0068476
:102890000601315152081CE3200E315D050DF35045
:1028A000036A3B6F060EEA6E360EE96E3F6B3BC65F
:1028B0003EF6050E016EF76A3B51000120EC00F078
:1028C0000A000900F5CFEEFF012EFBD726D0060146
:1028D00031517E081CE3530E315D050DF350036A40
:1028E0003B6F060EEA6E360EE96E3F6B3BC63EF658
:1028F000050E016EF76A3B510001AAEC00F00A00D8
:102900000900F5CFEEFF012EFBD707D00601366B8D
:10291000376B386B396B3A6B00011450050DF3506F
:102920001224BF0806E2126A1450070DF350010F7B
:1029300013260601326B325104083DE3336B3351E9
:10294000060835E3036A3251360FE96E060E03209E
:10295000EA6EEFCF00F03351016E04E0D890003200
:10296000012EFCD700A021D0346B1450345D1DE241
:10297000356B1450355D17E2355112243B6F3351DE
:102980001402F350132434253C6F000E15B0010ED1
:102990003D6F3BC643F63CC644F6456F0001EEDD95
:1029A0000601352BE6D7342BE0D7332BC8D7322B93
:1029B00014501226C0D712C018F01450122614500A
:1029C000070DF3501324196E000140EF15F0EACF04
:1029D00030F6E9CF2FF606012939F0092B6F2B27A6
:1029E000E20F2C6F320F2E6F29510F0B2C272C2743
:1029F0002E27E90F2D6F2D272D2728390F0B2D2777
:102A00002E272D372E372E1F2E3728510F0B2E270E
:102A10002B37070E2A6F0A0E2D072E27FDE32C07F2
:102A20002D27FDE32B072C27FDE32A072B27FDE3AA
:102A3000060EEA6E2A0EE96E070E2F152F9DE92667
:102A4000000EEA22E9502E0804E1EA50060801E1EE
:102A50002F8DEF50006E08E12FBD06D02FB915D095
:102A60002FB702D0200E03D02F872F99300E0026CB
:102A7000EACF29F6E9CF28F600C031F6000101D7E8
:102A800029C6EAFF28C6E9FF0601EE502FADDAD7C6
:102A900000016EEF17F01732173217321F0E17169C
:102AA000193219321932191617C028F606012851A1
:102AB000195CD8A088D098948F8498968F8698981F
:102AC0008F8816503F080BE398948F941650400956
:102AD0002A6F2B6F00013FEC02F01AD0060116504E
:102AE0007F080CE398968F96400E165C40092A6F7B
:102AF0002B6F00013FEC02F00BD0060198988F98E5
:102B0000800E165C40092A6F2B6F00013FEC02F02B
:102B100006012851B8092A6F2B6F00013FEC02F023
:102B200016C029F606012951185C4BE329514008CB
:102B300013E198948F8498968F96400E2B6F000126
:102B40003FEC02F006012851B8092A6F2B6F0001F3
:102B50003FEC02F015D006012951800812E1989649
:102B60008F8698988F98400E2B6F00013FEC02F0F3
:102B700006012851B8092A6F2B6F00013FEC02F0C3
:102B80000601496B28C648F64B6BC00E4A6F000120
:102B90004EEC02F001C02AF6060129510124016E13
:102BA000000E0220036E01501A0FE96E000E032082
:102BB000EA6EEFCF2BF6000194EC02F00601292B10
:102BC000B2D7282B74D700016FEF17F0F86AD09EA8
:102BD000639A000E646E200E636E9598958A959C9C
:102BE0000684070E06011A6F1A0E1B6F270E1C6F44
:102BF000206B1F6B236B246B256B266B276BC150DF
:102C0000C00B0F09C16E070EB46E0468056806900C
:102C1000076A086809680A680B680C680D680E681E
:102C20000F68106A116A069200017AEF01F0C05035
:102C3000C00B0209C06EC08EC280C150C00B0C090F
:102C4000C16E080E016EC250C30B0110C26EEBEFD5
:102C500001F00601286B020E296F000110EC02F052
:102C60004E0EF66E020EF76E000EF86E2BEC02F0B2
:102C7000010E0601286F040E296F000110EC02F00E
:102C8000F60E06012B6F00011CEC02F0600EF66ED2
:102C9000020EF76E000EF86E2BEC02F0A80ED56E49
:102CA000D76AD66A0000C00E086EF90E096EA40E2F
:102CB0000A6EB00E0B6E920E0D6E820E0E6EF80E38
:102CC0000F6E4DEF03F00601286B00015FEC02F080
:102CD000A0EC02F0040E0601296FD20E286F00014D
:102CE00088EF03F0D6500601216FC282C2B2FED730
:102CF000C4CF1EF6C3CF1DF60B0E316F720E306FB0
:102D00001EC633F61DC632F6000165EC03F002C0A4
:102D10005DF601C05CF6000121EC04F003C02BF667
:102D200002C02AF601C029F600C028F603C02FF61B
:102D300002C02EF601C02DF600C02CF6680E06016A
:102D4000336F910E326F0D0E316F7F0E306F0001B9
:102D500069EF0DF003C05BF602C05AF601C059F6E8
:102D600000C058F628EC05F002C01EF601C01DF6A2
:102D700006011E5303E11D51500803E21E6B500E65
:102D80001D6F2151180804E2D76A010ED66E0000AB
:102D9000010E286F090E296F000110EC02F021C608
:102DA00029F60A0E06012A6F0001E9EC0EF001C0B7
:102DB00029F60A0E06012A6F0001E9EC0EF0300E2A
:102DC00000240601286F2B6F00011CEC02F021C6C5
:102DD00029F60A0E06012A6F0001E9EC0EF0300E0A
:102DE00000240601286F2B6F00011CEC02F01EEF7F
:102DF0000FF001C022F606012251050801E1232B44
:102E000023C629F60A0E2A6F0001E9EC0EF0036AC8
:102E1000005002EC00F00C6E6DEF0FF07C0E06011E
:102E2000296F440E286F0001D2EC0FF0015203E12C
:102E30000601241F00017C0E0601296F450E286F34
:102E40000001D2EC0FF0015203E10601251F000141
:102E50007C0E0601296F460E286F0001D2EC0FF0A0
:102E6000015203E10601261F00017C0E0601296FB5
:102E7000470E286F0001D2EC0FF0015203E106016A
:102E8000271F000127C628F626C629F625C62AF6DA
:102E900024C62BF671EF10F05A0E0601286F140E9F
:102EA000296F960E2A6F280E2B6F010E2C6F2D6B3B
:102EB000000178D40601296B5A0E286F2B6B140E73
:102EC0002A6F030E2C6F010E2D6F0001CCD4100E53
:102ED000E96E1EC629F61DC628F679D5DCD502D7BF
:022EE0000300ED
:020000040030CA
:0E00000000C21E1EF387B100FFC0FFE0FF40EC
:00000001FF
;PIC18F8722
;CRC=D3F7  CREATED="02-Oct-21 16:28"
