:10000000ECEF00F0F76A180FF66E000EF722000E04
:10001000F86E0900F5501200C0F9A4B0999282F868
:1000200080908883C6A1868E000E956EF00E9A6E23
:100030000F0E936EF19EFDEF00F0016A026A006AF6
:10004000036A115002E1105018E0100E126ED890A1
:100050000E360F36003603361150035C02E11050A5
:10006000005C07E31050005ED8A003061150035E49
:10007000D88001360236122EEAD7120066500FC021
:1000800066FF6430FEE366500EC066FF6430FEE338
:1000900066500DC066FF6430FEE366500CC066FF1C
:1000A0006430FEE3959E8C8E959E8C9EEAEF00F068
:1000B00007C00FF006C00EF0030E116EE80E106EB2
:1000C000BCDF02C00DF001C00CF002C00FF001C097
:1000D0000EF0116A0A0E106EB0DF00C00CF003C003
:1000E0000DF003C003F00050F2CF0EF0F29E8ADF55
:1000F0000EBEF28E086E07C00FF006C00EF0116A39
:10010000640E106E9ADF02C00DF001C00CF002C048
:100110000FF001C00EF0116A0A0E106E8EDF00C0E3
:100120000CF003C00DF003C003F00050F2CF0EF04E
:10013000F29E68DF0EBEF28E096E07C00FF006C099
:100140000EF0116A0A0E106E78DF02C00DF001C0C9
:100150000CF002C00FF001C00EF0116A0A0E106E12
:100160006CDF00C00CF003C00DF003C003F00050C2
:10017000F2CF0EF0F29E46DF0EBEF28E0A6E07C080
:100180000FF006C00EF0116A0A0E106E56DF00C0A6
:100190000CF003C00DF003C003F00050F2CF0EF0DE
:1001A000F29E30DF0EBEF28E0B6E0850C00809E1E1
:1001B00008680950C00805E109680A50C00801E153
:1001C0000A6808C00CF009C00DF00AC00EF00BC0A0
:1001D0000FF054D716EF01F0F86AD09E639A000E24
:1001E000646E210E636E9598958A959CC150C00BE4
:1001F0000F09C16E070EB46E17D7D56AD76A0A0EFB
:10020000D66ED650046E9A8888B802D0B80ED56ED5
:100210009A8A88BA01D0D56A0450630803E2D76A83
:100220000A0ED66E076A04C006F042D7EAD703006A
:020000040030CA
:0E00000000C21E1EF387B100FFC0FFE0FF40EC
:00000001FF
;PIC18F8722
;CRC=4522  CREATED="21-Sep-21 20:16"
