:04000000F4EF00F029
:08000800046ED8CF05F0E0CF33
:1000100006F00001E9CF0CF0EACF07F0E1CF08F0DD
:10002000E2CF09F0D9CF0AF0DACF0BF0F3CF12F01C
:10003000F4CF13F0FACF14F0FBCF15F000C00EF0A0
:1000400001C00FF002C010F003C011F09DA02CEF12
:1000500000F09EB066EF00F00EC000F00FC001F09F
:1000600010C002F011C003F00CC0E9FF07C0EAFFA6
:10007000078E08C0E1FF09C0E2FF0AC0D9FF0BC02C
:10008000DAFF12C0F3FF13C0F4FF14C0FAFF15C06B
:10009000FBFF045006C0E0FF05C0D8FF1000F2CF00
:1000A0000DF0F29EF76ABC0FF66E000EF722000EFE
:1000B000F86E0900F5500DBEF28E1200C0F9A4B022
:1000C000999282F880908883C6A1868E0B0ECF6E9F
:1000D000DC0ECE6E222A9E902CEF00F0665026C0D9
:1000E00066FF6430FEE3665025C066FF6430FEE3C1
:1000F000665024C066FF6430FEE3665023C066FF8E
:100100006430FEE3959E8C8E959E8C9E94EF00F05D
:10011000000E956EF00E9A6E0F0E936EF19E236890
:10012000246825682668DAD715EF01F02550016AA2
:10013000245C03E224C000F00CD0006A080E266E96
:10014000243600362550005CD8B0006E0136262ECD
:10015000F7D71200665027C066FF6430FEE3665092
:1001600026C066FF6430FEE395968C8695968C9645
:100170001200EA6A240EE96EEF500DE0060E016EE1
:10018000006A002EFED7012EFBD77B0E006E002EDC
:10019000FED7EF2EF3D7EDEF00F0236A23500708C8
:1001A00021E3036A2350170FE96E000E0320EA6E65
:1001B000EFCF24F0010E006E2350016E04E0D890C2
:1001C0000036012EFCD70050FF0A256E24C026F011
:1001D000276EC0DF010E246ECCD726682768BADFF1
:1001E000232ADCD79BEF01F0F86AD09E078E639A32
:1001F000000E646E210E636E9598958A959C0D0E87
:100200001F6E180E206E350E216E226AC150C00B73
:100210000F09C16E070EB46E1768186819681A685E
:100220001B681C681D681E6873D7B50ECD6E0B0E5B
:10023000CF6EDC0ECE6E9D80C00EF21222500908E9
:1002400012E20A0E225E212A21503C080CE1216AAA
:10025000202A20503C0807E1206A1F2A1F500D0861
:1002600002E1010E1F6E1FC024F00A0E256E5EDF34
:1002700001C024F00A0E256E59DF036A0050F2CF48
:1002800023F0F29E0CDF23BEF28E1E6E1FC024F000
:100290000A0E256E4BDF036A0050F2CF23F0F29E68
:1002A000FEDE23BEF28E1D6EBF0E1C6E20C024F03B
:1002B0000A0E256E3BDF01C024F00A0E256E36DFE4
:1002C000036A0050F2CF23F0F29EE9DE23BEF28EE5
:1002D0001B6E20C024F00A0E256E28DF036A005032
:1002E000F2CF23F0F29EDBDE23BEF28E1A6EBF0E3B
:1002F000196E21C024F00A0E256E18DF01C024F00B
:100300000A0E256E13DF036A0050F2CF23F0F29E2F
:10031000C6DE23BEF28E186E21C024F00A0E256EB2
:1003200005DF036A0050F2CF23F0F29EB8DE23BE51
:0A033000F28E176E32D782D7030059
:020000040030CA
:0E00000000C21E1EF387B100FFC0FFE0FF40EC
:00000001FF
;PIC18F8722
;CRC=3B45  CREATED="24-Sep-21 13:26"
