:1000000000308A00552800000A108A100A11820761
:10001000EF34DF34BF347F34FF30A300A401240861
:10002000033C031C522824080420A50083168601E3
:1000300083122508860083160614831206182628C4
:10004000240DA300A30DFC30A3051B2883168614E2
:10005000831286183428240DF700F70DFC30F705BD
:100060007708013EA3002628831606158312061979
:100070004228240DF700F70DFC30F7057708023E03
:10008000A300342883168615831286195028240D60
:10009000F700F70DFC30F7057708033EA300422870
:1000A000A40A0F282308F800080003081F3983005A
:1000B0002210831603170908C039890003131F1281
:1000C0009F1200300317880083128701880189017D
:1000D00083130F3083160313860083120C207808D5
:1000E000A00020080B3C031D7A288316081001305D
:1000F000831288062008073C03192214221C9C281E
:1001000083168813803083128806A1012108C73C1A
:10011000031C9C280C207808A00020080B3C031D21
:100120009628831608100130831288062008073CA1
:0C01300003192214A10A86286E2863001F
:04400E00E22FFF3F5F
:00000001FF
;PIC16F887
;CRC=33FE  CREATED="24-Sep-21 09:30"
