:100000007FEF00F0F76A180FF66E000EF722000E71
:10001000F86E0900F5501200C0F9A4B0999282F868
:1000200080908883C6A1868EF76A3C0FF66E000E1C
:10003000F722000EF86E0900F5501200EFDFBF7FC7
:10004000665019C066FF6430FEE3665018C066FF54
:100050006430FEE3665017C066FF6430FEE366500E
:1000600016C066FF6430FEE3959E8C8E959E8C9E36
:100070001200000E956EF00E9A6E0F0E936EF19EAA
:100080001668176818681968DBDFA1EF00F01668BA
:10009000176A175003082FE3036A1750F2CF18F0BE
:1000A000F29EC2DF18BEF28E936A8A6E938081B090
:1000B00005D01750040DF3CF16F0F8D7938281B214
:1000C00006D01750040DF350010F166EF7D7938426
:1000D00081B406D01750040DF350020F166EF7D7F7
:1000E000938681B606D01750040DF350030F166E99
:1000F000F7D7172ACED716C001F0A2EF00F0F86AA2
:10010000D09E639A000E646E210E636E9598958A58
:10011000959CC150C00B0F09C16E070EB46E0468E8
:10012000056806680768086809680A680B687F0E32
:100130000E6E0F6E106E116E126E136E146E156EC3
:1001400098D7A5D701C00CF00C50090829E3070E79
:100150000D6E0D521CE0036A0D500E0F016E000E65
:10016000032201C016F003C017F0010E0D5C036AF4
:100170000E0FE96E000E0320EA6EEFCF18F017C0E5
:10018000EAFF01C0E9FF18C0EFFF0D06E2D7036ADE
:100190000C50F2CF16F0F29E35DF16BEF28E0E6EC8
:1001A0000C500B0822E10D6A0D5006081CE3036A8F
:1001B0000D500E0F016E000E032201C016F003C099
:1001C00017F0010E0D24036A0E0FE96E000E0320D6
:1001D000EA6EEFCF18F017C0EAFF01C0E9FF18C0C0
:1001E000EFFF0D2AE1D77F0E156E0C500C080FE1C2
:1001F0000D6A0D5007080BE3036A0D500E0FE96EF0
:10020000000E0320EA6E7F0EEF6E0D2AF2D711C0AA
:1002100016F010C017F00FC018F00EC019F010DF64
:0402200090D7030070
:020000040030CA
:0E00000000C21E1EF387B100FFC0FFE0FF40EC
:00000001FF
;PIC18F8722
;CRC=03E6  CREATED="25-Sep-21 07:27"
