:10000000E3EF00F0F76A180FF66E000EF722000E0D
:10001000F86E0900F5501200C0F9A4B0999282F868
:1000200080908883C6A1868E016A026A006A036A8C
:10003000135002E1125018E0100E146ED8901036D2
:100040001136003603361350035C02E11250005C97
:1000500007E31250005ED8A003061350035ED88059
:1000600001360236142EEAD71200665011C066FF20
:100070006430FEE3665010C066FF6430FEE36650F5
:100080000FC066FF6430FEE366500EC066FF64304A
:10009000FEE3959E8C8E959E8C9EE1EF00F009C04C
:1000A00011F008C010F0136A0A0E126EBDDF00C016
:1000B0000EF003C00FF003C003F00050F2CF10F0B9
:1000C000F29EA0DF10BEF28E0A6E09C011F008C0C9
:1000D00010F0136A0A0E126EA7DF02C00FF001C003
:1000E0000EF002C011F001C010F0136A0A0E126E79
:1000F0009BDF00C00EF003C00FF003C003F0005000
:10010000F2CF10F0F29E7EDF10BEF28E0B6E09C0B1
:1001100011F008C010F0136A640E126E85DF02C081
:100120000FF001C00EF002C011F001C010F0136A10
:100130000A0E126E79DF00C00EF003C00FF003C08C
:1001400003F00050F2CF10F0F29E5CDF10BEF28E92
:100150000C6E09C011F008C010F0030E136EE80E0B
:10016000126E62DF02C00FF001C00EF002C011F08B
:1001700001C010F0136A0A0E126E56DF00C00EF0B6
:1001800003C00FF003C003F00050F2CF10F0F29E56
:1001900039DF10BEF28E0D6E0D50C00809E10D68FA
:1001A0000C50C00805E10C680B50C00801E10B6859
:1001B0000DC00EF00CC00FF00BC010F00AC011F013
:1001C00054D711EF01F0F86AD09E639A000E646E66
:1001D000210E636E9598958A959CC150C00B0F09AE
:1001E000C16E070EB46ED56AD76AF00ED66E9A88C5
:1001F00088B802D0B80ED56E9A8A88BA01D0D56A6E
:10020000D650046ED7CF05F0055203E10450FE0826
:1002100003E2D76AF00ED66E05C009F004C008F0FC
:060220003ED7E5D7030004
:020000040030CA
:0E00000000C21E1EF387B100FFC0FFE0FF40EC
:00000001FF
;PIC18F8722
;CRC=DDA0  CREATED="17-Sep-21 13:19"
