:04000000DAEF00F043
:08000800046ED8CF05F0E0CF33
:1000100006F00001E9CF0CF0EACF07F0E1CF08F0DD
:10002000E2CF09F0D9CF0AF0DACF0BF0F3CF12F01C
:10003000F4CF13F0FACF14F0FBCF15F000C00EF0A0
:1000400001C00FF002C010F003C011F09DA02CEF12
:1000500000F09EB062EF00F00EC000F00FC001F0A3
:1000600010C002F011C003F00CC0E9FF07C0EAFFA6
:10007000078E08C0E1FF09C0E2FF0AC0D9FF0BC02C
:10008000DAFF12C0F3FF13C0F4FF14C0FAFF15C06B
:10009000FBFF045006C0E0FF05C0D8FF1000F2CF00
:1000A0000DF0F29EF76ABC0FF66E000EF722000EFE
:1000B000F86E0900F5500DBEF28E12007FBFDFEF23
:1000C000F7FBFDFE0B0ECF6EDC0ECE6E1F2A9E9050
:1000D0002CEF00F0665025C066FF6430FEE36650EA
:1000E00024C066FF6430FEE3665023C066FF6430C0
:1000F000FEE3665022C066FF6430FEE3959E8C8E60
:10010000959E8C9E90EF00F0000E956EF00E9A6E0C
:100110000F0E936EF19E2268236824682568DAD753
:10012000F6EF00F0665025C066FF6430FEE36650CF
:1001300026C066FF6430FEE395968C8695968C9675
:100140001200EA6A230EE96EEF500DE0060E016E12
:10015000006A002EFED7012EFBD77B0E006E002E0C
:10016000FED7EF2EF3D7D3EF00F0226A2250070814
:100170001FE3036A2250F2CF23F0F29E90DF23BEEA
:10018000F28E236E036A2250170FE96E000E0320D1
:10019000EA6EEFCF24F023C025F024C026F0C2DFA2
:1001A000010E236ECED725682668BCDF222ADED753
:1001B0001AEF01F0F86AD09E078E639A000E646E03
:1001C000210E636E9598958A959C1F6A206AC1508E
:1001D000C00B0F09C16E070EB46E17681868196856
:1001E0001A681B681C681D681E688ED7B50ECD6E18
:1001F0000B0ECF6EDC0ECE6E9D80C00EF2121F5025
:10020000040807E2050E1F5E202A2050640801E161
:10021000206AC00E176EB00E186EBF0E196E920EC9
:100220001A6EB00E1B6EBF0E1C6E900E1D6EC00EB1
:080230001E6E9BD7E4D703000A
:020000040030CA
:0E00000000C21E1EF387B100FFC0FFE0FF40EC
:00000001FF
;PIC18F8722
;CRC=299D  CREATED="23-Sep-21 19:47"
