:10000000E6EF00F0F76A180FF66E000EF722000E0A
:10001000F86E0900F550120080C094D4544855433E
:10002000205441502056584C2043543400004C6F0B
:100030006E3A0000665012C066FF6430FEE3665000
:1000400011C066FF6430FEE3665010C066FF643086
:10005000FEE366500FC066FF6430FEE3959E8C8E13
:10006000959E8C9E42EF00F0100E926E000E956EE3
:10007000F00E9A6E0F0E936EF19E0F681068116865
:100080001268D8D701EF01F0030E155E09E3EA6AA2
:10009000150EE96EEF5004E001D000D0EF2EFDD731
:1000A00071EF00F014B002D0919001D091809A903D
:1000B00014B202D0919201D091829A9214B402D0DB
:1000C000919401D091849A9414B602D0919601D063
:1000D00091869A9695928C8295928C92C80E156E06
:1000E000D3D7120095908C901238136E0F0E131602
:1000F00013C014F0D7DF12C014F0D4DF1200EA6A84
:100100000F0EE96EEF500DE0060E016E006A002E34
:10011000FED7012EFBD77B0E006E002EFED7EF2EF2
:10012000F3D71200320E126EDDDF050E0F6EE7DF21
:100130002C0E126ED7DF050E0F6EE1DF0C0E126E65
:10014000D1DF010E126ECEDF020E0F6ED8DF02EF8E
:1001500001F0036A0F5056DF1024116E126EC2DFD9
:10016000120095908C801238136E0F0E131613C068
:1001700014F098DF12C014F095DF12000900F55258
:1001800010E0F6CF0FF0F7CF10F0F8CF11F0F5CF69
:1001900012F0E7DF0FC0F6FF10C0F7FF11C0F8FF45
:1001A000EDD712001150016A105C03E210C000F09C
:1001B0000CD0006A080E126E103600361150005C2A
:1001C000D8B0006E0136122EF7D71200F86AD09E12
:1001D000639A000E646E200E636E9598958A959CC6
:1001E0000E6A0D6AC150C00B0F09C16E070EB46EC6
:1001F0000468056806680768086809680A680B6883
:1002000033D790D70F6A020E106EA3DF1C0EF66E66
:10021000000EF76E000EF86EB1DF010E0F6E040EC9
:10022000106E97DFF60E126E9CDF2E0EF66E000E2D
:10023000F76E000EF86EA2DFA80ED56ED76AD66AEA
:100240000000D6500C6E0C50180804E2D76A010E5C
:10025000D66E0000010E0F6E090E106E7ADF0CC014
:1002600010F00A0E116E9EDF01C010F00A0E116E22
:1002700099DF300E00240F6E126E73DF0CC010F089
:100280000A0E116E8FDF300E00240F6E126E69DFC2
:04029000D8D70300B8
:020000040030CA
:0E00000000C21E1EF387B100FFC0FFE0FF40EC
:00000001FF
;PIC18F8722
;CRC=E633  CREATED="29-Sep-21 13:39"
