:10000000B1EF00F05068616E2056616E20486F615C
:100010006E00665011C066FF6430FEE3665010C08B
:1000200066FF6430FEE366500FC066FF6430FEE397
:1000300066500EC066FF6430FEE3959E8C8E959EE2
:100040008C9E2FEF00F0000E956EF00E9A6E0F0E44
:10005000936EF19E0E680F6810681168DAD7CCEFC6
:1000600000F0030E125E09E3EA6A120EE96EEF5029
:1000700004E001D000D0EF2EFDD712009A909190AD
:10008000996A0EC090FF9A9291829A929192C80EAC
:10009000126EE7DF1200EA6A0F0EE96EEF500DE014
:1000A000060E016E006A002EFED7012EFBD77B0ED6
:1000B000006E002EFED7EF2EF3D71200380E0E6E14
:1000C000DDDF050E0F6EE7DF380E0E6ED7DF050E93
:1000D0000F6EE1DF0C0E0E6ED1DF010E0E6ECEDF65
:1000E000020E0F6ED8DFCDEF00F09A909180996AE2
:1000F00011C090FF9A9291829A929192C80E126EBC
:10010000B0DF8FEF00F00900F55210E0F6CF0EF0EF
:10011000F7CF0FF0F8CF10F0F5CF11F0E6D70EC003
:10012000F6FF0FC0F7FF10C0F8FFEDD7D4EF00F0D7
:1001300066500EC066FF6430FEE366500FC066FF77
:100140006430FEE3665010C066FF6430FEE3665024
:1001500011C066FF6430FEE3959A8C8A959A8C9A5A
:100160001200F86AD09E639A000E646E200E636ED1
:100170009598958A959C0D6A0C6AC150C00B0F0921
:10018000C16E070EB46E04680568066807680868E3
:1001900009680A680B6857D791D7040EF66E000EEF
:1001A000F76E000EF86EAFD70E6A0F6A106811680E
:1001B000BFDF020E0E6E960E0F6E6DDF0E2EFBD79A
:1001C0000E6A0F6A106A116AB3DF020E0E6E960E87
:0C01D0000F6E61DF0E2EFBD7E7D7030097
:020000040030CA
:0E00000000C21E1EF387B100FFC0FFE0FF40EC
:00000001FF
;PIC18F8722
;CRC=3602  CREATED="29-Sep-21 10:32"
