:10000000AEEF02F0F76A140FF66E000EF722090049
:10001000F55012007FBFDFEFF7FBFDFEF76A2C0FF4
:10002000F66E000EF7220900F55012003F7FBFFF69
:10003000000E956E966E3C0E936E956A8C68046801
:10004000056895928C9295908C90086A076A12EFD9
:1000500003F0006A016A6351D89064B1002600324F
:10006000013264B300260032013264B5002600324A
:10007000013264B700260032013264B90026003232
:10008000013264BB00260032013264BD002600321A
:10009000013264BF00260032013286EF00F0616950
:1000A00061C060F0626B62BF03D06251030826E357
:1000B000036A6251F2CF63F0F29EB0DF63BFF28E4B
:1000C000936A8A6E938481B404D0030E616F16D054
:1000D00013D0938681B604D0020E616F0FD00CD07E
:1000E000938881B804D0010E616F08D005D0938A3F
:1000F00081BA02D0616B02D0622BD5D7613D01D0AD
:1001000008D062C063F0040E646FA3D7615101246C
:10011000606F60C001F01200EA6A650EE96EEF5090
:100120000DE0060E016E006A002EFED7012EFBD7F1
:100130007B0E006E002EFED7EF2EF3D71200AFDF3E
:1001400001C01AF01A3C01D00CD0010E656FE4DF3B
:10015000A6DF01C01AF0A3DF01C01BF01A501B5C20
:10016000FAE01AC001F013EF03F076C078F0776B75
:10017000775107080EE378BF02D08D9401D08D84AB
:10018000969496908D9096908D80D8907837772B16
:10019000EFD71200956A8C6A04B802D08C9801D00F
:1001A0008C88959804BC02D08C9C01D08C8C959C3A
:1001B00004B402D08C9401D08C84959495928C8256
:1001C000F0EF00F072C076F0D0DF73C076F0CDDFD4
:1001D00074C076F0CADF75C076F0C7DF0498DAD74E
:1001E000959A8C8A959A8C9A95928C9209EF01F047
:1001F0006BC06EF06AC06FF06DC070F06CC071F0D3
:100200006EC072F06FC073F070C074F071C075F0A2
:10021000D9D7120064C066F065C067F063C069F0AA
:1002200062C068F067C06BF066C06AF069C06DF0CC
:1002300068C06CF0DDDF1200645303E064C065F059
:100240006BDF3E2AA3EF01F0956A8C6A05BC02D0F1
:100250008C9C01D08C8C959C05B802D08C9801D0D8
:100260008C88959805B402D08C9401D08C84959498
:1002700095908C801200036A6751F2CF69F0F29E6C
:10028000C1DE69BFF28E016E696F691F69C076F0C9
:100290006CDF68C069F0691F69C076F066DF059899
:1002A000D3DF959A8C8A959A8C9A95908C9086EF4C
:1002B00001F06651686F681F68C076F056DF67C04E
:1002C00068F0681F68C076F050DF0598BDDF959A2A
:1002D0008C8A959A8C9A95908C9072EF01F0666951
:1002E0006769E7D78CEF01F0196A1950070816E320
:1002F000036A1950110FE96E000E0320EA6EEFCF6A
:1003000066F019C067F066C068F0B5D7A60E006E3B
:10031000002EFED70000E3D7192AE7D795EF01F0AA
:10032000656B6451655D03E2DFD7652BFAD73E2A22
:10033000A3EF01F0635304E162C064F07DD703D002
:1003400062C064F0EDD71200412A1F6A1E6A1D6A5E
:100350001C6A236A226A216A010E206E800E276EB3
:10036000266A256A246A2B6A2A6A296A286A2F6EF5
:100370002E6A316A010E306E336A326A800E376E31
:10038000366A396A010E386E3B6A3A6A356A346AEF
:1003900035C02DF034C02CF0200E3F6E406A100E98
:1003A000426E436A3E6A476A466A456A010E446E77
:1003B0004B6A4A6A496A486E4F684E684D68FE0E3D
:1003C0004C6E010E5C6E5D6E800E536E526A516A09
:1003D000506A576E566A556A546A7F0E5B6E5A6849
:1003E0005968586812005CBE03D05C5020083CE39A
:1003F0005DBE24D05D50000821E2D89050365136C1
:1004000052365336585050101C6E595051101D6EB4
:100410005A5052101E6E5B5053101F6E1FC065F075
:100420001EC064F01DC063F01CC062F0F3DE60C04B
:1004300062F061C063F07EDF5D0615D05C2A5CC0AF
:100440005DF0D8905732563255325432D8905B32E4
:100450005A325932583257C053F056C052F055C034
:1004600051F054C050F001D06FDF2FEF03F03E5039
:100470000F081AE32DC06BF02CC06AF02DC06DF090
:100480002CC06CF0B5DED8902C34626F2D34636FC5
:10049000010E62252C6E000E63212D6E60C062F08D
:1004A00061C063F047DF16D03E501F0812E32DC035
:1004B0006BF02CC06AF02DC06DF02CC06CF098DE93
:1004C000D8902C362D3660C062F061C063F032DF08
:1004D00001D03ADF2FEF03F03FBE3DD03F50000880
:1004E0003AE24050800A006E3F50800A005C20E2F1
:1004F000285020101C6E295021101D6E2A502210E9
:100500001E6E2B5023101F6E1FC065F01EC064F0BE
:100510001DC063F01CC062F07DDE60C062F061C08F
:1005200063F008DFD8902036213622362336402A61
:100530003F50405C0FE13F06406A1FC02BF01EC0D9
:100540002AF01DC029F01CC028F0236A226A216A03
:10055000010E206E01D0F8DE2FEF03F0F86AD09E76
:10056000066A0D6A0E6A0F6A106A196A1A6A1B6AAD
:100570001F6A1E6A1D6A1C6A236A226A216A010EAA
:10058000206E800E276E266A256A246A2B6A2A6AE4
:10059000296A286A2F6E2E6A316A010E306E336A1C
:1005A000326A800E376E366A396A010E386E3B6ADF
:1005B0003A6A3D6A3C6A3E6A200E3F6E406A010E0E
:1005C000416E100E426E436A476A466A456A010EE2
:1005D000446E4B6A4A6A496A486E4F684E684D6875
:1005E000FE0E4C6E800E536E526A516A506A576E00
:1005F000566A556A546A7F0E5B6E5A685968586825
:10060000010E5C6E5D6EC150C00B0F09C16E070E0E
:10061000B46E116812681368146815681668176854
:10062000186806D58CD501C05FF05F3C01D002D0C0
:100630005FC05EF05E5205E1280E606F616BD3D63D
:100640000ED05E2C05D0280E606F616B10D707D0DE
:100650005E50020804E1280E606F616B3DD7E2D75F
:02066000030095
:020000040030CA
:0E00000027CC3E1E0087A1000FC00FE00F406E
:00000001FF
;PIC18F4550
;CRC=CFF5  CREATED="01-Mar-16 08:27"
