:1000000013EF01F0F76A140FF66E000EF7220900E5
:10001000F55012003F7FBFFF000E956E966E3C0EAE
:10002000936E956A8C680468056895928C92959099
:100030008C90086A076A30EF01F0006A016A245068
:10004000D89025B000260032013225B200260032B9
:10005000013225B400260032013225B600260032D6
:10006000013225B800260032013225BA00260032BE
:10007000013225BC00260032013225BE00260032A6
:1000800001327AEF00F0226822C021F0236A23BEF9
:1000900003D02350030826E3036A2350F2CF24F051
:1000A000F29EB0DF24BEF28E936A8A6E938481B48E
:1000B00004D0030E226E16D013D0938681B604D0DE
:1000C000020E226E0FD00CD0938881B804D0010E9E
:1000D000226E08D005D0938A81BA02D0226A02D05B
:1000E000232AD5D7223C01D008D023C024F0040E07
:1000F000256EA3D722500124216E21C001F01200E9
:10010000EA6A210EE96EEF500DE0060E016E006AFC
:10011000002EFED7012EFBD77B0E006E002EFED7E1
:10012000EF2EF3D79DEF00F0AEDF01C01AF01A3CBE
:1001300001D00CD0010E216EE3D7A5DF01C01AF06B
:10014000A2DF01C01BF01A501B5CFAE01AC001F0DC
:1001500031EF01F035C037F0366A365007080EE34C
:1001600037BE02D08D9401D08D84969496908D9058
:1001700096908D80D8903736362AEFD71200956A40
:100180008C6A04B802D08C9801D08C88959804BCF5
:1001900002D08C9C01D08C8C959C04B402D08C94A1
:1001A00001D08C84959495928C82E5EF00F031C05B
:1001B00035F0D0DF32C035F0CDDF33C035F0CADFE7
:1001C00034C035F0C7DF0498DAD7959A8C8A959AAF
:1001D0008C9A95928C92FEEF00F02AC02DF029C0E7
:1001E0002EF02CC02FF02BC030F02DC031F02EC0DF
:1001F00032F02FC033F030C034F0D9D711EF01F016
:1002000023C025F024C026F022C028F021C027F00A
:1002100026C02AF025C029F028C02CF027C02BF0DA
:10022000DCD75BEF01F0F86AD09E066A0D6A0E6AB1
:100230000F6A106A196A1A6A1B6A1F6A1E6A1D6AA7
:100240001C6AC150C00B0F09C16E070EB46E116855
:100250001268136814681568166817681868DCD681
:1002600063D701C020F0205216E1D8901C34226ED2
:100270001D34236E1E34246E1F34256E010E22247D
:100280001C6E000E23201D6E000E24201E6E000E1C
:1002900025201F6E07D0202C05D0D8901F321E328B
:1002A0001D321C321FC024F01EC023F01DC022F0DE
:0A02B0001CC021F0A5D7D4D703002D
:020000040030CA
:0E00000027CC3E1E0087A1000FC00FE00F406E
:00000001FF
;PIC18F4550
;CRC=6372  CREATED="01-Mar-16 08:16"
